S01100004E69786965546573742E7372656376
S113000012C02CC02BC02AC029C028C027C026C0BB
S113001025C044C123C022C021C020C01FC01EC0AF
S11300201DC01CC01BC011241FBECFE5D4E0DEBF21
S1130030CDBF10E0A0E6B0E0E6ECF2E002C005902F
S11300400D92AA36B107D9F720E0AAE6B0E001C0C4
S11300501D92A637B207E1F722D033C1D1CF8FEF7B
S113006081BB87B3876087BB089585B5896085BDEB
S113007082E483BD85B5806185BDBB9A3D9A86B116
S1130080866E86B9089585B1803128F085B58F7C58
S113009085BDC398089585B5806185BD0895DFDF6A
S11300A0B1D0E3DF7894CAE6D0E088248394712C3D
S11300B0D12C0F2EF6E6EF2EF0E0FF2EF02D00E609
S11300C010E00F2EF3E2AF2EF02D0F2EFDE0BF2E29
S11300D0F02DCC24CA9499249394A5D0D4DF809194
S11300E06800811117C0A0926800B092670088B3BD
S11300F0887F88BBC2BA809169008F5F843018F40E
S11301008093690007C09092690080916700811113
S113011060C00CC080916700811170C0809169003B
S1130120823071F08330B1F08130F1F4F8019281C2
S11301308181F0E19F9F800D112482BBC09A42C04F
S1130140F80194818381F0E19F9F800D112482BB8B
S1130150C19A38C0F80196818581F0E19F9F800D96
S1130160112482BBC29A2EC08C81882369F0E0E6F8
S1130170F0E081818F5F8A3010F4818301C01182A5
S11301803196EE15FF05A9F780916700882329F1C0
S11301909881992351F19FEF980F90936700809174
S11301A06800882341F0911108C0982D28812111FD
S11301B005C0972D03C09D2D01C09D2D891B8093E3
S11301C068008BCF8C818111D2CFDECF8091670004
S11301D0DFCF8C818111CBCFF9CF809367008091E1
S11301E068008111E2CF9D2DE9CF80936700809153
S11301F068009D2DE3CF80916700CACF8C81811167
S1130200B6CFF9CF83B7826083BF89B7816089BFD6
S113021084E682BF0895EAE6F0E010821182128239
S1130220138214820895F7DF809175008823A9F161
S113023010927500EAE6F0E081E0808355815F5F0B
S1130240558346814F5F4683278130852F5F3F4F1B
S113025030872783818592850196928781875A30DA
S113026018F0158251E05183443628F0EAE6F0E0B4
S1130270168241E04283283E334030F0EAE6F0E063
S11302801086178221E023838031974230F0EAE61A
S1130290F0E01286118681E0848308951F920F9204
S11302A00FB60F9211248F9384E682BF809175005C
S11302B08F5F809375008F910F900FBE0F901F90EA
S10902C01895F894FFCF2D
S10D02C6080406090200010D2301DB
S9030000FC
