:100000000C949B000C94AD000C94AD000C94AD00CE
:100010000C94AD000C94AD000C94AD000C94AD00AC
:100020000C94AD000C94FD120C94AD000C9478135C
:100030000C94AD000C94AD000C94AD000C94AD008C
:100040000C94AD000C94AD000C94AD000C94AD007C
:100050000C94AD000C94AD000C94AD000C94AD006C
:100060000C94AD000C94AD00530E5A0E600E660F4A
:10007000660F660F660F660F660F660F810E880E9D
:100080008E0E660F660F660F660F660F660F9A0E6E
:10009000A50EAB0E660F660F660F660F660F660F36
:1000A000660FB10EBC0EC50ECE0ED90EF30EFE0EAF
:1000B000180F660F660F2A0F350F400F660F660F79
:1000C000660F660F660F660F660F4B0F560F7C0F9D
:1000D000DA0FDA0FDA0FDA0FDA0FDA0FDA0FDA0FD8
:1000E000DA0FDA0FDA0FDA0FDA0FDA0FDA0FDA0FC8
:1000F000DA0FDA0FDA0F860F8B0F8E0FDA0FDA0FA7
:10010000DA0FDA0FDA0FDA0FDA0F980F9F0F9F0F5F
:10011000AC0FAC0FB30FB30FBA0FDA0FDA0FC50F76
:10012000C80FCB0FDA0FDA0FDA0FDA0FDA0FDA0FA8
:10013000DA0FCE0FD30F11241FBECFEFD8E0DEBFF2
:10014000CDBF22E0A0E0B1E001C01D92A631B20710
:10015000E1F70E9484100C94D0130C940000ECE79B
:10016000F0E080818083EAE7F0E080818668808328
:10017000E0E0F1E0128281E08083118208958091B5
:100180000001882309F475C080910101813011F1CB
:1001900018F0823081F151C08091020197E0899F6F
:1001A000F0011124E050FF4F20853185232B49F4C5
:1001B00026813781232B29F081E08093010113826E
:1001C0003CC08F5F863018F48093020136C01092D5
:1001D000020133C080917C00807F90910201890FE1
:1001E00080937C0080917A00806480937A0082E022
:1001F0008093010122C080917A0086FD1EC080910B
:100200000201209178003091790097E0899FF001F8
:100210001124E050FF4F3583248391E0938326819E
:100220003781318720878F5F863018F480930201F1
:1002300002C010920201109201010E946F13E0E0CF
:10024000F1E0208531852115310541F061E090E034
:10025000811101C060E0462F592F02C040E050E0FC
:10026000241B350B31872087379691E0EA32F90756
:1002700041F70895863050F497E0899FF0011124EA
:10028000E050FF4F7783668381E008958FEF0895F4
:10029000282F30E097E0899FF0011124E050FF4FB4
:1002A00083818111138287E0829FF001839FF00D8B
:1002B0001124E050FF4F84819581089527E0829FAB
:1002C000C0011124FC01E050FF4F83810895982F55
:1002D000907F903A60F4982F9F709A3040F4829506
:1002E0008F702AE0829F900D1124892F089580E05D
:1002F0000895282F843690F46AE00E948913392FDC
:10030000822F90E0831B91096AE070E00E94A9139C
:10031000832F90E1699F800D1124089580E0089556
:100320000F9380913B018B3009F479C190F48230B6
:1003300009F448C028F4882309F1813079F1E4C236
:10034000843009F4BEC008F487C0853009F429C19F
:10035000DBC28E3009F43DC238F48C3009F4ACC1F4
:100360008D3009F4D6C1D0C2863109F485C28336F6
:1003700009F4A9C2853109F0C7C25BC280913A0174
:10038000882331F080914101882309F4BDC298C2CD
:1003900080913C018111BCC281E011C080913F017C
:1003A000811107C068E687E00E94A60780933F019D
:1003B000ABC20E945F07882309F4A6C285E0809340
:1003C00041017EC280913F010E945F0790913E01F2
:1003D000882341F0911106C01092440100913F0121
:1003E00023E0EFC0992309F48FC210923E0180915F
:1003F00045018F770E94670180932E01809146010D
:100400008F770E94670180932F0190913501809131
:100410004701992359F08F710E9467018093300141
:1004200080914701807280933D0105C08F730E94C7
:10043000670180933001E0914201F09143013097D0
:1004400009F406C280912E0190912F01A0913001F4
:1004500080839183A283FCC180913F010E945F074A
:1004600090913E01882331F0911104C084E0809383
:10047000440133C0992309F447C210923E01809190
:1004800045018F730E94670180933101809146017D
:100490008F710E94670180933201809147010E9411
:1004A000670180933301E0914201F091430130975D
:1004B00009F4CEC18091310190913201A0913301B4
:1004C000C7CF80913F010E945F0790913E01882332
:1004D00041F0911106C01092440100913F0127E0C4
:1004E00070C0992309F410C210923E0190913A0114
:1004F00080914501911110C0982F991F9927991F3C
:10050000909334012091470191E026FF90E0909371
:10051000350191E090933A018F770E9467018093B3
:100520002E01809146018F770E94670180932F01F1
:100530009091350180914701992359F08F710E9464
:1005400067018093300180914701807280933D0163
:1005500005C08F730E94670180933001809149012B
:100560008F730E9467018093310180914A018F71DE
:100570000E9467018093320180914B010E946701C4
:1005800080933301A0914201B0914301109709F487
:100590005FC186E0EEE2F1E001900D928A95E1F70D
:1005A00057C180913F010E945F0790913E018823CF
:1005B00081F091110EC087E08093440100913F01CA
:1005C00021E041E065E471E084E491E00E94870766
:1005D00072C1992309F498C110923E01809145019E
:1005E000982F991F9927991F9093390191E084FFC3
:1005F00090E09093380191E081FF90E09093370173
:1006000091E080FF90E09093360180913A01811152
:100610001FC184E080933B018093410175C18091AB
:100620003F010E945F0790913E01882309F44CC06E
:1006300091114AC088E0E4E4F1E0DF011D928A955F
:10064000E9F780912E010E94790120913401B0E8F0
:100650002B9F90011124822B8093450180912F01C3
:100660000E9479018F77809346018091350188231C
:1006700091F0809130010E9479012091350130E4A0
:10068000239FA001112490913D0160E2969F90016B
:100690001124242B0AC0809130010E9479012091FD
:1006A000350190E4299F90011124822B809347010A
:1006B00040913F0164E0FBC080913F010E945F07D1
:1006C00090913E01811106C0992309F41DC1109239
:1006D0003E01BEC09111F8CF88E0E4E4F1E0DF0113
:1006E0001D928A95E9F784E080934401809131015D
:1006F0000E9479018F7380934501809132010E949D
:1007000079018F7180934601809133010E947901B4
:10071000CDCF80913F010E945F0790913E018823D9
:1007200099F29111D1CF88E0E4E4F1E0DF011D926C
:100730008A95E9F780912E010E9479012091340178
:10074000B0E82B9F90011124822B8093450180916A
:100750002F010E9479018F778093460180913501A6
:10076000882391F0809130010E9479012091350118
:1007700030E4239FA001112490913D0160E2969FF7
:1007800090011124242B0AC0809130010E9479012C
:100790002091350190E4299F90011124822B8093B0
:1007A0004701809131010E9479018F738093490143
:1007B000809132010E9479018F7180934A0180916A
:1007C00033010E94790180934B0140913F0168E021
:1007D0006EC080913F010E945F0790913E01882387
:1007E00081F191112EC088E0E4E4F1E0DF011D9277
:1007F0008A95E9F787E08093440180913901B0E858
:100800008B9FA00111242091380130E1239FC0016A
:100810001124842B20913601982F922B809137013F
:10082000880F892B8093450140913F0162E0CF0101
:1008300040C080913F010E945F0790913E0181116D
:100840000CC0992309F460C010923E0110923A0145
:1008500010923B011092410157C09111F2CF88E0F4
:10086000E4E4F1E0DF011D928A95E9F780912E0121
:100870000E9479018F7716C080913F010E945F0727
:1008800090913E018823E9F29111DBCF88E0E4E406
:10089000F1E0DF011D928A95E9F780912E010E9417
:1008A000790180688093450140913F0162E084E4D2
:1008B00091E00E94700780913B018093400183E6A4
:1008C00080933B0121C080913F010E944D078536F6
:1008D00061F410923B011092410180913F010E940E
:1008E00056078AE080933C010FC080913F010E942F
:1008F0005F07882349F08091400180933B018091FC
:100900003E018F5F80933E0180913C01882329F056
:100910000E94751391E0811101C090E080913C012B
:10092000891B80933C010F91089588E0E4E4F1E095
:10093000DF011D928A95E9F710923E0110923A016B
:1009400080913F0181110E94B80710923F011092DF
:100950003C0181E080934101089580913B01811128
:1009600007C080913A01813019F4909141019111B1
:1009700080E0089520914101211107C09093430127
:100980008093420184E08093410108958091350174
:10099000089580913D010895FC01809141018111EC
:1009A0000EC0F0934301E093420196E0AEE2B1E065
:1009B00001900D929A95E1F78DE0809341010895A1
:1009C00090914101911121C091E0811101C090E00D
:1009D00090933501909130019D3048F0882339F093
:1009E0009C509093300181E080933D010BC0209199
:1009F0003D01222339F0811105C0945F90933001AD
:100A000010923D018BE08093410108959091350152
:100A1000911180933D01089580914101811105C09C
:100A20001092340185E18093410108958091410144
:100A3000811106C081E08093340186E180934101F9
:100A4000089581E090913401911180E008958091A2
:100A50004C01823009F449C028F4882351F08130D8
:100A6000C9F072C0833009F443C0843009F469C00E
:100A70006BC0F9996BC080914F0190915001892B07
:100A800009F464C080915101882311F081E056C0BF
:100A900083E054C080914F0190915001009709F478
:100AA00053C001979093500180934F01F894809127
:100AB0004D0190914E019C012F5F3F4F30934E01AD
:100AC00020934D0192BD81BDE0915201F0915301FF
:100AD000CF0101969093530180935201808180BD94
:100AE000FA9AF99A789482E029C0F99BCFCF0895B9
:100AF00080914F0190915001009731F101979093AF
:100B0000500180934F0180914D0190914E019C01C5
:100B10002F5F3F4F30934E0120934D0192BD81BD19
:100B2000F89AE0915201F0915301CF010196909310
:100B300053018093520180B5808384E080934C01FF
:100B40000895F99BA5CF089510924C0108958091C6
:100B50004F0190915001892B19F480914C01089517
:100B600083E60895ECE4F1E09283818374836383E8
:100B70005783468385818F5F85830895ECE4F1E098
:100B80009283818374836383578346831582089598
:100B900080915601843610F480935701853009F412
:100BA0009FC020F5823009F465C0C8F4882389F11C
:100BB000813009F064C11092B90090E29093B800BE
:100BC00094E09093BC0098B1906398B910927C0126
:100BD000809355011092560180935B0108958330F4
:100BE00009F44DC0843009F461C049C18C3009F466
:100BF000F2C038F48A3009F4A5C08B3009F4C0C0C3
:100C00003EC18D3009F402C1843609F038C10000BC
:100C1000089580915401882309F433C180915501CE
:100C2000882309F42EC180915B018F5F823008F028
:100C300081E080935B01E0915B018E2F90E02FE0DB
:100C4000E29FF0011124EC5AFE4F2189211104C0CA
:100C50002289222309F415C12FE0289FF001299F42
:100C6000F00D1124EC5AFE4F818D882309F409C13F
:100C700082E013C083E08093560184EAC4C080916F
:100C8000BC0087FFFEC08091B900887F80935C0123
:100C9000883011F0803121F484E08093560108956A
:100CA00094E690935601809357010895E0915B017B
:100CB0008FE0E89FF0011124EC5AFE4F918985895D
:100CC000992329F095E090935601880F05C095E08F
:100CD00090935601880F8F5F8093BB0084E893C088
:100CE0008091BC0087FFCDC08091B900887F809340
:100CF0005C01883111F0803469F4E0915B019FE080
:100D0000E99FF0011124EC5AFE4F8189882309F4F0
:100D1000A7C051C0803279F410925601E0915B0176
:100D20002FE0E29FF0011124EC5AFE4F118A128A43
:100D300085E6808F67C0883309F49ACF8093570186
:100D400084E6ABCFE0915B018FE0E89FF0011124D6
:100D5000EC5AFE4F8189882359F00384F485E02DF5
:100D600080818093BB0084E88093BC008BE095CFAA
:100D7000828981117DCF108E84E98093BC007FC071
:100D80008091BC0087FF7DC08091B900887F8093EF
:100D90005C01E0915B01883281F49FE0E99FF00102
:100DA0001124EC5AFE4F838594850196948783879E
:100DB00081898150818B8AE070CF94E99093BC0047
:100DC0002FE0E29FF0011124EC5AFE4F808F148631
:100DD0001386118A51C0E0915B018FE0E89FF0011A
:100DE0001124EC5AFE4F8289823010F084EC03C04B
:100DF000813029F484E88093BC008DE04ECF1092BE
:100E00005601108E84E98093BC0008958091BC0047
:100E100087FF37C08091B900982F987F90935C012D
:100E2000807FE0915B018035E9F48FE08E9FF001D7
:100E30001124EC5AFE4F0584F685E02D9091BB00FD
:100E40009083E0915B018E9FF0011124EC5AFE4FDC
:100E50008585968501969687858782898150828BC4
:100E60008CE01BCF84E98093BC002FE0E29FF0016F
:100E70001124EC5AFE4F908F16861586128A109216
:100E800056010895E4E5F1E081E0818782831182D3
:100E9000089581E08093540108952FE0829FC0015E
:100EA0001124FC01EC5AFE4F808D08952FE0829FA3
:100EB000C0011124FC01EC5AFE4F108E08952FE062
:100EC000829FC0011124FC01EC5AFE4F808D8111DC
:100ED00005C081E090915501911101C080E0089515
:100EE0009C01215031402E3F374080F42FE0429F3B
:100EF000F0011124EC5AFE4F9487838716861586DD
:100F0000618B128A81E0838B82E0808F08950F933A
:100F1000FC01E150F140EE3FF740B0F4FB01E1503D
:100F2000F140EE3FF74080F43FE0039FF0011124D1
:100F3000EC5AFE4F9487838776876587418B228B97
:100F400081E0838B82E0808F0F910895982F8091AC
:100F50005501813059F420917C01211107C0809303
:100F60007C0190937A0160937801089580E0089560
:100F70002FE0829FC0011124FC01EC5AFE4F118E1C
:100F8000089585B19091A701911119C09091DA014E
:100F90009093A6019091DB019093A701887F909197
:100FA00081019F5F909381012091E101263010F42F
:100FB000933011F0943018F091E09093810190916A
:100FC000A601911116C090918101923049F09330A1
:100FD00061F0913071F490919C019BB9816009C0DE
:100FE00090919D019BB9826004C090919E019BB934
:100FF000846085B90895823009F462C028F488239A
:1010000051F0813091F00895833009F44CC284305E
:1010100009F4A1C2089580E00E94ED102C988AEA9C
:1010200080939C0180939D01FEC281E00E94ED109F
:101030008091A101833081F48091EA01882319F025
:1010400085B1807107C00E947213882381F095B129
:1010500080E1892785B90BC08091E20180FF06C03D
:101060008091E001882311F02C9A01C02C98809186
:10107000A101833009F082C08091E101863020F423
:101080008091A5018111D1C18091A301823009F421
:1010900051C0833009F45AC0813009F0C6C2809132
:1010A000E4010E94790180939C018091E3010E94F8
:1010B000790180939D018091E20180FF39C0B1C226
:1010C00081E00E94ED108091A101833009F0A6C15A
:1010D0000E947213882321F095B180E1892785B998
:1010E0008091A101833009F0CFC19091E101963048
:1010F00008F496C18091A3018C3009F4A1C18D3010
:1011000009F4AAC18B3009F090C2953008F490C15F
:101110008091E5010E94790180939C018091E60114
:101120000E94790180939D018091E20180FFB8C106
:101130008AEA79C28091E4010E94790180939C013E
:101140008091E20180FD0EC08AEA10C08091E20128
:1011500080FF05C08091E4010E94790101C08AEA04
:1011600080939C018091E3010E94790180939D010D
:101170008091E101853008F458C210C09091DE01E1
:1011800091110FC08091E4010E94790180939C012C
:101190008091E3010E94790180939D018091E20199
:1011A00040C280919501813051F120F0823009F4E4
:1011B00026C108958091E4010E94790180939C01E9
:1011C0008091E3010E94790180939D018091E20169
:1011D0000E94790180939E0143E050E062EE71E04D
:1011E00089E991E00E94C313892B09F41EC2809102
:1011F00095018F5F8093950110929601089530912B
:101200009B012091E401913009F5321731F0809172
:101210009701882311F0832F01C0822F0E9479014A
:1012200080939C0190919A018091E301981721F09D
:10123000209197012111892F0E94790180939D01AE
:1012400080919701882309F4B4C047C0809196012A
:10125000863008F05AC0321741F0809197018823F8
:1012600021F0832F0E94790111C04AE0832F642F5F
:101270000E948913582F822F0E948913581711F04A
:101280008AEA04C0832F0E9479018F6080939C01B9
:1012900020919A014091E301241741F08091970138
:1012A000882321F0822F0E94790111C03AE0822F19
:1012B000632F0E948913582F842F0E948913581777
:1012C00011F08AEA04C0822F0E9479018FE0809396
:1012D0009D0180919701882319F0809199016BC03D
:1012E000209199013AE0822F632F0E948913482FA1
:1012F0008091E2010E948913481711F08AEA5DC0CB
:10130000822F0E9479018FE058C03217B1F080918E
:101310009701882391F04AE0832F642F0E9489135C
:10132000382F822F0E948913381711F08AEA08C0DB
:10133000822F0E9479018F6003C0822F0E94790161
:1013400080939C0180919A012091E3018217A9F07A
:1013500090919701992389F03AE0632F0E948913B5
:10136000482F822F0E948913481711F08AEA08C07B
:10137000822F0E9479018F6003C0822F0E94790121
:1013800080939D0180919701882399F02091E2013B
:10139000809199013AE0632F0E948913482F822F90
:1013A0000E9489134813AACF822F0E9479018F606F
:1013B00004C08091E2010E94790180939E01809196
:1013C00098019091DF0181110FC0809197018111E7
:1013D0000BC080919601292F281B209397018093A1
:1013E00098018F5F8093960180919601981708F07D
:1013F0001CC1809195018F5F809395010895809124
:10140000E2019091E301A091E4018093990190930E
:101410009A01A0939B011092950108952C9860CE9B
:101420008091A501882309F465CE8091A30173C042
:1014300084E10E94790180939C018091E70184C03E
:101440008091E5010E94790180939C018091E201E5
:1014500080FF09C08AEA0BC08091E20180FF0FC0C3
:101460008AEA80939C018091E6010E947901809331
:101470009D018091E101853008F4D7C011C08091B1
:10148000E5010E947901EDCF8091E5010E9479018B
:1014900080939C018091E6010E94790180939D01D7
:1014A0008091E701BEC081E00E94ED100E9472139E
:1014B000882321F095B180E1892785B98091E101E8
:1014C000853020F48091A301833309F58091A30135
:1014D0000E94790180939C0180919F018A3018F0CD
:1014E0000E94790109C090919D01992321F00E94E9
:1014F0007901805601C08AEA80939D0180919E0106
:10150000882319F08091A0018CC080EA8CC0909152
:10151000A501992329F00E94790180939C010895E7
:1015200080919F018A3018F00E94790107C08823BA
:1015300021F00E947901805601C08AEA80939C01C3
:101540008091A001882319F00E94790101C080EAEE
:1015500080939D0108950E947213882309F441C06D
:10156000809188018F5F80938801809182018F5FD5
:101570008A3018F48093820102C010928201809117
:1015800083018F5F8A3018F48093830102C0109228
:101590008301809184018F5F8A3018F480938401E5
:1015A00002C010928401809185018F5F8A3018F407
:1015B0008093850102C010928501809186018F5F22
:1015C0008A3018F48093860102C0109286018091BF
:1015D00087018F5F8A3018F48093870102C01092D0
:1015E000870190918201809183012AE0929F800D72
:1015F00011240E94790180939C0190918401809133
:1016000085012AE0929F800D11240E947901809328
:101610009D0190918601809187012AE0929F800D23
:1016200011240E94790180939E0108951092A801CF
:1016300086E190E09093C3018093C2010895CF9317
:10164000DF93C0E8D1E080E788838AB18FEF8AB961
:1016500084B1876184B987B1897F87B9198280E0B5
:101660000E94ED1081E089A392E09093DA0195E069
:101670009093DB012CE231E03093C1012093C00153
:101680008AA30E94A810DF91CF910C94160B809131
:10169000A801813089F020F0823009F46DC00895EE
:1016A0006091C2017091C30144EC51E080E090E090
:1016B0000E94BE0581E05DC00E94A7058111C9C0DE
:1016C0008091C4018093AA018091C6018093AD01ED
:1016D0008091C5018093AB018091C7018093AF01D8
:1016E0008091C8019091C9019093B1018093B0019C
:1016F0008091CA019091CB019093B3018093B20184
:101700008091CC019091CD01A091CE018093B60142
:101710009093B701A093B8018091CF019091D0012F
:10172000A091D1018093BA019093BB01A093BC0119
:101730008091D2019091D3019093BF018093BE011B
:101740008091D4018093DC018091D5018093DD01EB
:101750008091D6018093DE018091D7018093DF01D3
:101760008091D8018093E0018091D9018093E101BB
:1017700082E08093A80108958091A901882309F44B
:1017800068C00E94A705811164C01092A9018091D0
:10179000AA018093C4018091AD018093C60180911C
:1017A000AB018093C5018091AF018093C701809107
:1017B000B0019091B1019093C9018093C8018091CB
:1017C000B2019091B3019093CB018093CA018091B3
:1017D000B6019091B701A091B8018093CC0190938C
:1017E000CD01A093CE018091BA019091BB01A0914F
:1017F000BC018093CF019093D001A093D10180913F
:10180000BE019091BF019093D3018093D20180914A
:10181000DC018093D4018091DD018093D50180911A
:10182000DE018093D6018091DF018093D701809102
:10183000E0018093D8018091E1018093D90160910A
:10184000C2017091C30144EC51E080E090E00C943F
:10185000B20508958091A101823009F063C08091A2
:10186000AF01882309F45EC083E00E945E018823F3
:1018700039F083E00E9448019093B5018093B40150
:101880000E944B11882309F44DC08091AF01813033
:1018900009F448C05091BA017091BB019091BC010C
:1018A0006091B601E091B7012091B8013091E20159
:1018B0004091E3018091E401F091EA01FF23A9F056
:1018C000F091BD01FF2319F09C3009F0945FF09175
:1018D000B901FF2319F02C3009F0245FF091EB01DE
:1018E000FF2319F08C3009F0845F921768F42817F1
:1018F000C8F48917B8F4E417A8F4471798F46317E5
:1019000088F4351778F410C0291760F4821750F462
:10191000981740F44E1730F4741720F4361710F46B
:10192000531710F080E0089581E00895EF92FF9240
:101930000F931F93CF93DF930E942A0CC82F80919F
:10194000A101813029F008F440C38430D8F03DC3B0
:10195000C091A801C23009F038C381E00E94ED10A7
:101960008091E1018D7F843051F084E08093E1012A
:1019700083E08093A10183E38093A30126C3C093F6
:10198000A10123C30E94C107319902C0329B03C049
:1019900088EC80937D0180917D01811120C0809130
:1019A000A101823089F493E09093A10198EC909387
:1019B0007D0194E690937E019091E101963008F0CC
:1019C00081E08093A3010BC082E08093A10188ECA9
:1019D00080937D018091A9018F5F8093A9018091FF
:1019E000A101823021F0833009F4F6C0EEC280916B
:1019F000A2018150823008F061C08091DD0188230E
:101A000011F18091E20181111EC08091E4013AE060
:101A1000632F0E948913292F809382019093830161
:101A20008091E3010E948913809384019093850142
:101A30008091E101853020F0209386019093870109
:101A400084E08093A2018091AF01823029F083303D
:101A500051F0813099F509C0C11112C08091BE01C9
:101A60009091BF0127C0CC2349F12091B201309160
:101A7000B3018091B4019091B5012817390770F72F
:101A80008091C0019091C101892B51F00E94751382
:101A900031E020E0811101C030E0832F922F02C09D
:101AA00080E090E02091C0013091C101A901481B64
:101AB000590BCA019093C1018093C0018091A2018A
:101AC000813039F098F1823029F1843009F478C0FE
:101AD00080C08091C0019091C101892B49F48AE0B6
:101AE00090E09093C1018093C0011092A20171C057
:101AF0008091AA01882309F46CC08091AD018823EC
:101B000009F467C09091AC01911163C08093AE015C
:101B100082E05DC08091AB01882309F45AC09091A6
:101B2000AE01911156C08093AC0150C02091B40118
:101B30003091B5018091B0019091B101281739071A
:101B4000D8F48091C0019091C101892B51F00E947D
:101B5000751331E020E0811101C030E0832F922F16
:101B600002C080E090E02091C0013091C101A90144
:101B7000481B590BCA0104C08091BE019091BF015E
:101B80009093C1018093C001319B20C0329B1EC045
:101B90008091AF01813039F48091C0019091C101F1
:101BA000892BA1F016C0823041F0833091F48091EE
:101BB000C0019091C101892B61F4CC2339F009C097
:101BC000809188018B3028F01092880181E0809309
:101BD000A2018091A201F7C1319B04C0329B02C0D7
:101BE0008AE03FC086B1E091A301329B3DC0809165
:101BF0007E01811139C09091E101963018F482E0A4
:101C00008093A50181E08E0F8093A301813021F4A0
:101C1000963030F582E003C0843021F48BE080936D
:101C2000A3011EC08E3011F484E1F9CF873111F485
:101C30008EE1F5CF8F3151F48091AF01823011F4F4
:101C400081E2EDCF81110CC088E2E9CF8632E1F369
:101C50008B3211F482E3E3CF843311F41092A301A9
:101C60008EE180937E013BC1319B39C186B1809169
:101C70007E01811134C1F090E2011091E301D09115
:101C8000E401C091E5010091E601E090E7018E2FAB
:101C900090E0FC013197E333F10508F017C1EC5CEB
:101CA000FF4F0C94BD13F3945BE35F1508F00EC176
:101CB000F12C0CC11F5F1C3308F408C110E006C1F1
:101CC000DF5F0E942A11882389F00E944111882336
:101CD00029F0DC3008F4FAC080E00CC0DD3008F4F4
:101CE000F5C081E00E943411D1E0F0C0D83108F491
:101CF000EDC081E00E941D1180E00E943411D0E00F
:101D0000E5C0E39483E68E1508F0E0C0E12CDEC068
:101D10000F5F0D3008F4DAC001E0D8C0CF5F0230A9
:101D200009F0CEC0CD3108F4D1C00E945511811107
:101D3000CCC0D7C18091AA01882319F01092AA01C2
:101D4000C5C081E08093AA01C1C08091AD018F5FC1
:101D50008093AD01BBC08091AB018F5F8093AB01DD
:101D6000B5C08091AF018F5F843018F48093AF01CC
:101D7000ADC01092AF01AAC08091B4019091B5019D
:101D80009093B3018093B201A1C08091B40190916E
:101D9000B5019093B1018093B00198C08091BB01CF
:101DA0008F5F8C3318F48093BB0190C01092BB01FD
:101DB0008DC08091BC018F5F8093BC019091EA013E
:101DC000992359F09091EB01992321F08C3008F47C
:101DD0007DC006C08D3020F479C0883108F476C00B
:101DE0001092BC0173C08091B7018F5F8C3318F4DF
:101DF0008093B7016BC01092B70168C08091B801A1
:101E00008F5F8093B8019091EA01992359F09091E6
:101E1000EB01992321F08C3008F458C006C08D30B6
:101E200020F454C0883108F451C01092B8014EC05B
:101E30008091BE019091BF0101968536910528F4ED
:101E40009093BF018093BE0141C01092BF011092D8
:101E5000BE013CC08091DD018F5F823018F4809319
:101E6000DD0134C01092DD0131C08091DE018F5F51
:101E7000833018F48093DE0129C01092DE0126C061
:101E80008091DF018F5F893C18F48093DF011EC0D1
:101E90001092DF011BC08091E0018F5F823018F447
:101EA0008093E00113C01092E00110C08091E10125
:101EB000853010F084E001C086E08093E10106C027
:101EC000CF3120F0043009F010C1C1E08EE18093E1
:101ED0007E012C2F4D2F612F8F2D0E94BB12209140
:101EE000A301822F90E08433910508F063C0FC01C8
:101EF000E959FF4F0C94BD138091800164E60E9464
:101F0000891380939F019093A00156C010929F0166
:101F10008091AA0111C08091AD0102C08091AB01F6
:101F200064E60E94891380939F019093A001EAC008
:101F300010929F018091AF018093A001E3C0809136
:101F4000B4019091B50164E670E00E94951360932E
:101F50009F018093A00132C08091BC0180939F01BA
:101F60008091BB01E9CF8091B80180939F0180915E
:101F7000B701E2CF8091BE019091BF0164E670E0AD
:101F80000E94951360939F01D7CF8091DD01C8CF48
:101F90008091DE01C5CF8091DF01C2CF10929F01F9
:101FA0008091E001C9CF8091E10180939F0110925F
:101FB000A001A8C0243010F481E005C02A502A30C6
:101FC00008F0A0C082E00E94FB070E946F132091DE
:101FD0007D01222319F091E0811101C090E0291BBD
:101FE00020937D0120917E01222319F091E081113F
:101FF00001C090E0291B20937E0120917F012223C4
:1020000031F091E0811101C090E0892F01C080E0A2
:10201000281B20937F010E9475132091AE0122237B
:1020200019F091E0811101C090E0291B2093AE01CD
:102030002091AC01222319F091E0811101C090E0C0
:10204000291B2093AC012091A501222351F09091EE
:10205000A101933031F491E0811101C090E0892F0A
:1020600001C080E0281B2093A5010E946C13909171
:10207000A601992319F021E0811101C020E0921BF3
:102080009093A6012091A701222329F0911103C06A
:1020900091E0811101C090E0291B2093A70190914C
:1020A0009701992319F021E0811101C020E0921BD2
:1020B0009093970120919801222341F0911106C03D
:1020C00091E0811101C090E0892F01C080E0281BC0
:1020D00020939801DF91CF911F910F91FF90EF9086
:1020E0000895CE3108F0F1CEF1CE063009F4EDCEF0
:1020F000093009F4EACE0B3009F4E7CECF3109F00C
:10210000E4CEE4CE83E05FCF0E9412130E94420728
:102110000E9449070E9495040E94F0100E94AF009F
:102120000E94160B0E941F0B78940E942E130E948F
:10213000C8050E9490010E946A110E94BF000E947F
:10214000470B0E94960C0E94C2100E942705EDCFFB
:1021500082E08093B00081E08093B10088E78093B3
:10216000B300239A8BE292E090930C0280930B02CF
:1021700061E070E080E00E943A0164E670E083E094
:102180000C943A0180E00E945E01882339F080E0DF
:102190000E94480190930A028093090280910802EC
:1021A000882371F0813009F008952091090230915F
:1021B0000A0280910B0290910C028217930738F467
:1021C0008091B0008F738093B0002B980895809118
:1021D000B00080648093B000089580930802089551
:1021E000E2EEF1E08DEA94E0978786878CEC94E04C
:1021F000918B808B8AEB94E0938B828B80EE94E0C2
:10220000958B848B86EC94E0978B868B86E095E0AB
:10221000918F808F89EC94E0938F828F81E295E09B
:10222000958F848F8CE095E0978F868F86E195E07F
:1022300091A380A381E087830895CF93E091F60175
:10224000F091F701309721F0C82F0995C093EA016A
:10225000CF910895E091F801F091F901309709F0DC
:1022600009948091EA010895CF93E091FA01F091E9
:10227000FB01309721F0C82F0995C093EB01CF9156
:102280000895E091FC01F091FD01309709F0099467
:102290008091EB0108958091E901823021F481E081
:1022A0009091EC01911180E008952091E70130E0D8
:1022B0002053384FC90164E670E00E94A913892BAE
:1022C00031F4C90160E971E00E94A9130895822FD9
:1022D000837008951F93CF93DF938091EE0188233D
:1022E00041F08091EF01882341F01092EF0111E05D
:1022F00005C00E947513182F01C010E08091E901FC
:10230000813041F008F4E7C0823079F0833009F47D
:1023100086C0DFC08093E80181E090E090930702DF
:10232000809306021092ED0117C08091EC0181307C
:10233000B1F08091060290910702892B91F480916F
:102340000402909105021816190614F08AE090E034
:10235000909307028093060282E08093EC0183E071
:10236000B5C0E091F001F091F10109958823F9F0F1
:102370008091ED0181111BC081E08093ED01E0911E
:10238000F801F091F901099591E0811101C090E007
:102390009093EA01882359F0E091FC01F091FD014E
:1023A000099591E0811101C090E09093EB0180913B
:1023B000E201810F8C3318F48093E2018CC01092FB
:1023C000E2018091E3018F5F8C3318F48093E30185
:1023D00082C01092E3018091E4018F5F8093E40159
:1023E0009091EA019923A9F09091EB01992341F092
:1023F0008C3008F470C01092E4011092EB0185C09B
:102400008D3008F468C081E08093E4018093EB0193
:1024100062C0883108F45FC01092E40176C0E09198
:10242000F001F091F101309709F44BC00995882330
:1024300009F447C0E091FE01F091FF01309751F09F
:102440000995811107C0E0910002F09101023097D7
:1024500009F00995E091F201F091F3013097B1F0A4
:102460008091EC01813091F482EE91E00995E09148
:10247000FA01F091FB018091EB010995E091F601E1
:10248000F091F7018091EA0109951BC0E091F401F8
:10249000F091F5013097A9F08091EC01823089F438
:1024A00082EE91E00995E091FC01F091FD01099522
:1024B0008093EB01E091F801F091F9010995809387
:1024C000EA011092EC011092ED0182E08093E901A3
:1024D00002C01092E90180910602909107020097D4
:1024E00041F051E040E0111101C050E0252F342FA0
:1024F00002C020E030E0821B930B90930702809390
:102500000602DF91CF911F910895D091E501DF5F21
:10251000D093E501C091E601C23081F4DC31D8F2FC
:102520000E945511882339F081E08093E501CF5F47
:10253000CD3088F41DC0DC31B9F7CDCFDE3158F293
:10254000C43091F3C73081F38C2F8D7F893061F3D4
:10255000DE3151F7C0CF8093E6018091E7018F5FB4
:10256000843618F48093E701B6CF1092E701B3CF19
:10257000C093E601B0CFEF920F93CF93C22F8C336D
:1025800010F48093E2016C3310F46093E3018091C6
:10259000EA01811105C0483118F44093E40109C0F3
:1025A0008091EB01882319F04C30B8F302C04D3014
:1025B000A0F383E68E1510F0E092E7010D3010F4E1
:1025C0000093E6018091E601823061F40E9455118A
:1025D000882329F0CD3118F4C093E50107C0CE312E
:1025E000D8F304C0CF31C0F3CF31B1F381E0809391
:1025F000EC01CF910F91EF9008951F920F920FB6BB
:102600000F9211248F93EF93FF93E2EEF1E0858513
:102610008F5F8587FF91EF918F910F900FBE0F9085
:102620001F9018951092800089E08093810010928D
:102630008200EFE6F0E08081826080838FE39FE19B
:10264000909389008093880084E286BB0895EDE032
:10265000F2E0108211821282138208950E942713E1
:1026600080912D018823B9F110922D0151E05093F2
:102670000D02409111024F5F40931102209112020E
:10268000309113022F5F3F4F3093130220931202B9
:1026900080911402909115020196909315028093F7
:1026A00014024A3020F01092110250930E02243688
:1026B000310538F0109213021092120221E020939B
:1026C0000F02883E934038F01092150210921402C7
:1026D00081E080931002089580910D020895809109
:1026E0000E02089580910F020895809110020895BE
:1026F0001F920F920FB60F9211248F9380912D018C
:102700008F5F80932D018F910F900FBE0F901F90C0
:102710001895991B79E004C0991F961708F0961B2D
:10272000881F7A95C9F780950895AA1BBB1B51E1B4
:1027300007C0AA1FBB1FA617B70710F0A61BB70B31
:10274000881F991F5A95A9F780959095BC01CD01D6
:10275000089597FB072E16F4009407D077FD09D053
:102760000E94951307FC05D03EF4909581959F4FEC
:102770000895709561957F4F0895EE0FFF1F0590A6
:10278000F491E02D0994FB01DC0104C08D910190CE
:10279000801921F441505040C8F7881B990B0895C7
:0427A000F894FFCFDB
:00000001FF
