S01700004E69786965436C6F636B5F6D3332382E73726563BB
S11300000C9464010C9476010C9476010C947601A2
S11300100C9476010C9476010C9476010C94760180
S11300200C9476010C9437170C9476010C94A61753
S11300300C9476010C9476010C9476010C94760160
S11300400C9476010C9476010C9476010C94760150
S11300500C9476010C9476010C9476010C94760140
S11300600C9476010C947601B702CE02E4023803B4
S11300707C03EE03EB05EB05EB05EB05EB05370421
S11300809204CB043405EB05EB05EB05EB05EB051E
S1130090EB057105A005EB05EB05EB05EB05EB05A1
S11300A0EB05EB05EB05EB05EB05EB05EB05EB05CC
S11300B0EB05EB05EB05EB05EB05EB05EB05EB05BC
S11300C0EB05EB05EB05EB05EB05EB05EB05EB05AC
S11300D0EB05EB05EB05EB05EB05EB05EB05EB059C
S11300E0EB05EB05EB05EB05EB05EB05EB05EB058C
S11300F0EB05EB05EB05EB05EB05EB05EB05EB057C
S1130100EB05EB05EB05EB05EB05EB05EB05EB056B
S1130110EB05EB05EB05EB05EB05EB05EB05EB055B
S1130120EB05EB05EB05EB05EB05EB05EB05CE0568
S1130130480786079907A007B807EC07240924098C
S1130140240924092D086D08AB08D70824092409BB
S11301502409240924092409240924092409240933
S11301602409240924092409240924092409240923
S11301702409240924092409240924092409240913
S11301802409240924092409240924092409240903
S113019024092409240924092409240924092409F3
S11301A024092409240924092409240924092409E3
S11301B024092409240924092409240924092409D3
S11301C024092409240924092409240924092409C3
S11301D024092409240924092409240924092409B3
S11301E024092409240924092409240924092409A3
S11301F02409240924092409220998119F11A5110D
S1130200CC12CC12CC12CC12CC12CC12CC12CB11FC
S1130210D211D811CC12CC12CC12CC12CC12CC12DA
S1130220F51100120612CC12CC12CC12CC12CC1244
S1130230CC12CC120C1217121E12251230124E12AE
S113024059127712CC12CC12891294129F12CC122A
S1130250CC12CC12CC12CC12CC12CC12AA12B512E3
S1130260E212AF13AF13AF13AF13AF13AF13AF1348
S1130270AF13AF13AF13AF13AF13AF13AF13AF136A
S1130280AF13AF13AF13AF13F212F8120813AF1377
S1130290AF13AF13AF13AF13AF13AF1318131E1372
S11302A01E1338133F1346134D135413AF13AF13D8
S11302B06E137F139013AF13AF13AF13AF13AF13BA
S11302C0AF13AF13A113A81311241FBECFEFD8E0AF
S11302D0DEBFCDBF22E0A0E0B1E001C01D92A63197
S11302E0B207E1F70E947A140C9401180C940000F0
S11302F0ECE7F0E080818083EAE7F0E080818668C3
S11303008083E0E0F1E0128281E08083118208952D
S1130310FF920F931F93CF93DF9380910001882363
S113032009F498C0809101018130D9F120F0823024
S113033009F448C069C080910201282F30E097E099
S1130340899FF0011124E050FF4F40855185452BD2
S1130350F9F4F901EE0FFF1FEE0FFF1FEE0FFF1F61
S1130360E21BF30BE050FF4F46815781452B81F090
S113037081E080930101F901EE0FFF1FEE0FFF1FD3
S1130380EE0FFF1FE21BF30BE050FF4F13823CC044
S11303908F5F863018F48093020136C010920201F8
S11303A033C0ACE7B0E08C91807FE0E0F1E0928173
S11303B0890F8C93AAE7B0E08C9180648C9382E0DF
S11303C0818322C080917A0086FD1EC08091020143
S11303D0209178003091790097E0899FF0011124F1
S11303E0E050FF4F3583248391E093832681378146
S11303F0318720878F5F863018F48093020102C012
S113040010920201109201010E949D17E0E0F1E0B8
S1130410CAE2D1E010E070E0FF24F39400E0DF01D1
S1130420208531852115310549F06F2D902F8111DB
S113043002C0612F972F462F592F02C0412F572FEB
S1130440241B350B19963C932E9318973796EC176B
S1130450FD0729F7DF91CF911F910F91FF90089528
S1130460863050F497E0899FF0011124E050FF4F4B
S11304707783668381E008958FEF0895282F30E015
S113048097E0899FF0011124E050FF4F8381882376
S113049061F0F901EE0FFF1FEE0FFF1FEE0FFF1FBC
S11304A0E21BF30BE050FF4F1382F901EE0FFF1F25
S11304B0EE0FFF1FEE0FFF1FE21BF30BE050FF4F89
S11304C084819581089527E0829FC0011124FC0155
S11304D0E050FF4F83810895282F207F30E0203A99
S11304E031058CF4282F2F70422F50E04A305105EB
S11304F064F482958F70982F990F892F880F880F35
S1130500890F820F089580E0089580E0089584366D
S1130510E0F42DEC829F212D112426952695269515
S1130520220F922F990F990F290F982F921B292F81
S113053090E0821B91096AE070E00E94B717822F55
S113054090E1699F800D1124089580E008950F9330
S1130550CF93DF93E0913B018E2F90E08436910599
S113056008F039C3FC01EC5CFF4F0C94CB1780916D
S11305703A01882341F080914101882309F42BC377
S113058080933B0128C380913C01811128C3EEE292
S1130590F1E081E0838B858790E029C380913F015E
S11305A0811107C068E687E00E948D0980933F01AE
S11305B012C30E944409882309F40DC3EEE2F1E05A
S11305C085E0838B858707C380913F010E9444099E
S11305D08823A9F080913E01811116C0CEE2D1E0BA
S11305E01E8A098923E041E065E471E084E491E036
S11305F00E946E098D858A8B83E68D87ECC280917B
S11306003E01882309F4E7C2CEE2D1E0188A8F893B
S11306108F770E946C028883888D8F770E946C028A
S113062089838F81882349F0898D8F710E946C02A0
S11306308A83898D80728F8707C0CEE2D1E0898D4D
S11306408F730E946C028A83E0914201F09143010E
S1130650309749F080912E0190912F01A0913001A3
S113066080839183A283EEE2F1E01586138AB3C2FC
S113067080913F010E9444098823B1F080913E019A
S1130680811117C0CEE2D1E084E08E8B098927E086
S113069041E065E471E084E491E00E946E098D8597
S11306A08A8B83E68D8797C280913E01882309F463
S11306B092C2CEE2D1E0188A8F898F730E946C02B5
S11306C08B83888D8F710E946C028C83898D0E942C
S11306D06C028D83EC89FD89309749F0809131015A
S11306E090913201A091330180839183A283EEE241
S11306F0F1E01586138A6FC280913F010E9444097C
S11307008823A9F080913E01811116C0CEE2D1E088
S11307101E8A098927E041E065E471E084E491E000
S11307200E946E098D858A8B83E68D8754C28091E1
S11307303E01882309F44FC2EEE2F1E0108A848579
S113074081110EC09789892F881F8827881F868367
S1130750918D81E096FF80E0878381E080933A0168
S1130760CEE2D1E08F898F770E946C028883888DD6
S11307708F770E946C0289838F81882349F0898D49
S11307808F710E946C028A83898D80728F8707C063
S1130790CEE2D1E0898D8F730E946C028A83CEE20F
S11307A0D1E08B8D8F730E946C028B838C8D8F7143
S11307B00E946C028C838D8D0E946C028D83AC89A7
S11307C0BD89109731F086E0FE0101900D928A9563
S11307D0E1F7EEE2F1E01586138AFDC180913F0155
S11307E00E9444098823B1F080913E01811117C011
S11307F0CEE2D1E087E08E8B098921E041E065E417
S113080071E084E491E00E946E098D858A8B83E611
S11308108D87E1C180913E01882309F4DCC1EEE2B9
S1130820F1E0108A8789982F991F9927991F90932F
S1130830390191E084FF90E09093380191E081FFC9
S113084090E09093370191E080FF90E0909336011F
S113085080913A01811106C0EEE2F1E084E08587DF
S1130860838BB9C1EEE2F1E01586138AB4C180919D
S11308703F010E944409882309F449C080913E0144
S113088081114AC088E0E4E4F1E0DF011D928A9519
S1130890E9F7CEE2D1E088810E9487022E81B0E898
S11308A02B9F90011124822B8F8B89810E948702B8
S11308B08F77888F8F81882389F08A810E948702AD
S11308C02F8130E4239FA00111249F8560E2969F2D
S11308D090011124242B822B898F0CC0CEE2D1E00D
S11308E08A810E9487022F8190E4299F900111241C
S11308F0822B898FCEE2D1E0498964E084E491E0DF
S11309000E9457098D858A8B83E68D8764C1809107
S11309103E01882309F45FC1EEE2F1E0108A1586F6
S1130920138A59C180913F010E944409882341F1EF
S113093080913E01811129C088E0E4E4F1E0DF0107
S11309401D928A95E9F7CEE2D1E084E08E8B8B810B
S11309500E9487028F738F8B8C810E9487028F7114
S1130960888F8D810E948702898F498964E084E49D
S113097091E00E9457098D858A8B83E68D872BC170
S113098080913E01882309F426C1EEE2F1E0108A49
S11309901586138A20C180913F010E94440988234F
S11309A009F457C080913E01811158C088E0E4E405
S11309B0F1E0DF011D928A95E9F7CEE2D1E088816A
S11309C00E9487022E81B0E82B9F90011124822B74
S11309D08F8B89810E9487028F77888F8F818823EC
S11309E089F08A810E9487022F8130E4239FA0012D
S11309F011249F8560E2969F90011124242B822B61
S1130A00898F0CC0CEE2D1E08A810E9487022F81B7
S1130A1090E4299F90011124822B898FCEE2D1E0AA
S1130A208B810E9487028F738B8F8C810E94870237
S1130A308F718C8F8D810E9487028D8F498968E028
S1130A4084E491E00E9457098D858A8B83E68D8723
S1130A50C2C080913E01882309F4BDC0EEE2F1E0FA
S1130A60108A1586138AB7C080913F010E944409F9
S1130A70882359F180913E0181112CC088E0E4E47F
S1130A80F1E0DF011D928A95E9F7CEE2D1E087E03B
S1130A908E8B9B85B0E89B9FA00111242A8530E1B1
S1130AA0239FC0011124942F982B8885982B898526
S1130AB0880F892B8F8B498962E0CF010E945709E7
S1130AC08D858A8B83E68D8786C080913E0188233D
S1130AD009F481C0EEE2F1E0108A14861586138AC7
S1130AE07AC080913F010E9444098823E9F08091F3
S1130AF03E0181111EC088E0E4E4F1E0DF011D92B3
S1130B008A95E9F7CEE2D1E088810E9487028F7747
S1130B108F8B498962E084E491E00E9457098D85B6
S1130B208A8B83E68D8757C080913E01882309F420
S1130B3052C0EEE2F1E0108A14861586138A4BC087
S1130B4080913F010E9444098823E9F080913E018D
S1130B5081111DC088E0E4E4F1E0DF011D928A9573
S1130B60E9F7CEE2D1E088810E94870280688F8B0A
S1130B70498962E084E491E00E9457098D858A8B5B
S1130B8083E68D8728C080913E01882321F1EEE21F
S1130B90F1E0108A14861586138A1DC080913F01E6
S1130BA00E943209853651F4CEE2D1E01D861B8ABB
S1130BB089890E943B098AE08E8711C080913F0198
S1130BC00E944409882339F0EEE2F1E082898587A6
S1130BD080898F5F808B80913C01882339F00E944B
S1130BE0A31791E0811103C090E001C090E0EEE210
S1130BF0F1E08685891B8687DF91CF910F91089557
S1130C0088E0E4E4F1E0DF011D928A95E9F7EEE281
S1130C10F1E0108A1486818981110E94A109EEE213
S1130C20F1E0118A168681E0838B089580913B015F
S1130C3081110AC080913A01813041F490914101BF
S1130C40992329F080E0089580E0089580E00895D4
S1130C509C0190914101911106C0EEE2F1E0358BC7
S1130C60248B84E0838B08958091350108958091CD
S1130C703D010895CF93DF93FC01909141019111BF
S1130C800CC0CEE2D1E0FD8BEC8B86E0DE0101905E
S1130C900D928A95E1F78DE08B8BDF91CF910895CA
S1130CA090914101911121C091E0811101C090E026
S1130CB090933501909130019D3048F0882339F0AC
S1130CC0EEE2F1E09C50928381E087870BC0209193
S1130CD03D01222339F0811105C0EEE2F1E0945F79
S1130CE0928317868BE0809341010895909135019A
S1130CF0911180933D01089580914101811105C0B6
S1130D00EEE2F1E0168285E1838B08958091410142
S1130D10811106C0EEE2F1E081E0868386E1838BF7
S1130D20089581E090913401911180E008958091BB
S1130D304C01823009F448C028F4882351F08130F2
S1130D40E9F071C0833009F445C0843009F465C00A
S1130D506AC0F9996AC080914F0190915001892B22
S1130D6009F463C080915101882321F081E08093CC
S1130D704C01089583E080934C01089580914F01C4
S1130D80909150010097E9F0ECE4F1E0019794832D
S1130D908383F894818192819C012F5F3F4F32833A
S1130DA0218392BD81BDA681B781CD010196978330
S1130DB086838C9180BDFA9AF99A789482E0808334
S1130DC0089510924C010895F9992FC081E0809301
S1130DD04C01089580914F01909150010097D1F0FA
S1130DE0ECE4F1E0019794838383818192819C01F7
S1130DF02F5F3F4F3283218392BD81BDF89AA68134
S1130E00B781CD0101969783868380B58C9384E066
S1130E108083089510924C010895F99906C083E0E7
S1130E2080934C01089510924C01089580914F01D4
S1130E3090915001892B19F480914C01089583E617
S1130E400895ECE4F1E09283818374836383578390
S1130E50468385818F5F85830895ECE4F1E0928376
S1130E608183748363835783468315820895E09155
S1130E705601E43610F4E09357018E2F90E0853646
S1130E80910508F0E1C1FC01E856FF4F0C94CB1723
S1130E9080915401882309F4D9C180915501882394
S1130EA009F4D4C180915B018F5F823018F4809380
S1130EB05B0103C081E080935B01E0915B018E2FB5
S1130EC090E02FE0E29FF0011124EC5AFE4F2189BB
S1130ED021110CC02FE0289FF001299FF00D11244F
S1130EE0EC5AFE4F2289222309F4B0C12FE0289F37
S1130EF0F001299FF00D1124EC5AFE4F818D8823B7
S1130F0009F4A4C182E08093560108951092B900B7
S1130F1080E28093B80084E08093BC0088B1806351
S1130F2088B9E4E5F1E010A681E081831282878329
S1130F30089583E08093560184EA8093BC00089569
S1130F408091BC0088230CF081C18091B900887F16
S1130F5080935C01883011F0803121F484E0809327
S1130F6056010895E4E5F1E094E6928383830895BD
S1130F70E0915B012E2F30E08FE0E89FF001112417
S1130F80EC5AFE4F8189882399F085E080935601BD
S1130F908FE0829FF001839FF00D1124EC5AFE4FE5
S1130FA08589880F8093BB0084E88093BC000895F2
S1130FB085E0809356018FE0829FF001839FF00DBE
S1130FC01124EC5AFE4F8589880F8F5F8093BB00F4
S1130FD084E88093BC0008958091BC0088230CF0C1
S1130FE035C18091B900887F80935C01883111F00C
S1130FF0803499F4E0915B012FE0E29FF001112429
S1131000EC5AFE4F8189882321F08AE080935601AF
S113101008958CE0809356010895803291F4E4E5BC
S1131020F1E01282E7818FE0E89FF0011124EC5A8D
S1131030FE4F118A128A85E6808F84E98093BC0072
S11310400895883321F482E0809356010895E4E5FD
S1131050F1E0838384E682830895E0915B018E2F1F
S113106090E02FE0E29FF0011124EC5AFE4F218919
S11310702223A9F02FE0289FF001299FF00D1124CD
S1131080EC5AFE4F0384F485E02D80818093BB00ED
S113109084E88093BC008BE08093560108952FE090
S11310A0289FF001299FF00D1124EC5AFE4F22894C
S11310B0222321F082E08093560108952FE0289F97
S11310C0F001299FF00D1124EC5AFE4F108E84E993
S11310D08093BC001092560108958091BC0088232F
S11310E00CF0B4C08091B900887F80935C01883291
S11310F0B9F4A4E5B1E01796EC9117978FE0E89F57
S1131100F0011124EC5AFE4F83859485019694874F
S1131110838781898150818B8AE012968C9308950C
S113112084E98093BC00A4E5B1E01796EC9117978D
S11311302FE0E29FF0011124EC5AFE4F18968C9197
S11311401897808F14861386118A16861586128A3C
S113115012961C920895E0915B012E2F30E08FE0EF
S1131160E89FF0011124EC5AFE4F8289823038F056
S113117084EC8093BC008DE0809356010895813007
S113118039F484E88093BC008DE08093560108957F
S1131190109256018FE0829FF001839FF00D11247D
S11311A0EC5AFE4F108E84E98093BC000895809120
S11311B0BC0088230CF04AC08091B900982F987F16
S11311C090935C01807F803529F5A4E5B1E0179602
S11311D0EC9117978FE08E9FF0011124EC5AFE4F8B
S11311E00584F685E02D9091BB0090831796EC91D1
S11311F017978E9FF0011124EC5AFE4F8585968532
S113120001969687858782898150828B8CE012961D
S11312108C93089584E98093BC00A4E5B1E017960B
S1131220EC9117972FE0E29FF0011124EC5AFE4F46
S113123018968C911897808F16861586128A1296A6
S11312401C92089500000895109256010895E4E553
S1131250F1E081E0818782831182089581E08093A7
S1131260540108952FE0829FC0011124FC01EC5A1F
S1131270FE4F808D08952FE0829FC0011124FC0150
S1131280EC5AFE4F108E08952FE0829FC001112466
S1131290FC01EC5AFE4F808D811107C081E09091D2
S11312A05501911103C080E0089580E008959C01E8
S11312B0215031402E3F374080F42FE0429FF0010F
S11312C01124EC5AFE4F9487838716861586618B0A
S11312D0128A81E0838B82E0808F08950F93FC0152
S11312E0E150F140EE3FF740B0F4FB01E150F14032
S11312F0EE3FF74080F43FE0039FF0011124EC5AE5
S1131300FE4F9487838776876587418B228B81E0A4
S1131310838B82E0808F0F910895982F80915501DF
S1131320813059F420917C01211109C0E4E5F1E0F8
S113133021E020A796A364A3089580E0089580E0A7
S113134008952FE0829FC0011124FC01EC5AFE4F46
S1131350118E089585B19091A70191111AC0E0E80A
S1131360F1E02091DA0126A39091DB0197A3887F15
S113137091819F5F91833091E101363010F4933075
S113138011F0943030F091E090938101222369F0C0
S11313901AC09091A601911116C0909181019230CA
S11313A049F0933061F0913071F490919C019BB9B4
S11313B0816009C090919D019BB9826004C09091A5
S11313C09E019BB9846085B908950F931F93CF93B1
S11313D0DF93823009F460C228F4882351F081300D
S11313E099F0D6C3833009F404C3843009F468C384
S11313F0CFC380E00E94E9142C98E0E8F1E08AEA87
S1131400848F858F868FC4C381E00E94E914809104
S1131410A1018330C9F48091EA01882361F08091AD
S1131420EB01882321F085B1807185B918C085B19D
S1131430807185B914C00E94A017882381F095B1EA
S113144080E1892785B90BC08091E20180FF06C045
S11314508091E001882311F02C9A01C02C9880918E
S1131460A101833009F072C08091E101863058F403
S11314708091A501882339F0C0E8D1E08BA10E94B6
S113148087028C8F85C38091A3018230F9F0833069
S1131490E9F1813009F07CC3C2EED1E08A810E9477
S11314A0870200E811E0F801848F89810E94870295
S11314B0F801858F888180FF05C00E948702809390
S11314C09E0166C38AEA80939E0162C3C2EED1E0A4
S11314D08A810E94870280939C01888180FF07C0D3
S11314E08091E3010E94870280939D0103C08AEAF0
S11314F080939D018091E101853008F449C3809176
S1131500E2010E94870280939E0142C38091E2011E
S113151080FF07C08091E4010E94870280939C01B0
S113152003C08AEA80939C018091E3010E948702B0
S113153080939D018091E101853008F429C3809155
S1131540E2010E94870280939E0122C39091DE01F2
S1131550911114C002EE11E0F80182810E94870209
S1131560C0E8D1E08C8FF80181810E9487028D8FC1
S1131570F80180810E9487028E8F0AC380919501B1
S1131580813039F120F0823009F479C101C302EECF
S113159011E0F80182810E948702C0E8D1E08C8FBB
S11315A0F80181810E9487028D8FF80180810E9459
S11315B087028E8F43E050E0B80189E991E00E94F0
S11315C0F417892B09F4E4C28D898F5F8D8B1E8AF1
S11315D0DFC29130D1F590919B018091E40198177D
S11315E051F020919701222331F0892F0E94870224
S11315F080939C0104C00E94870280939C01909177
S11316009A018091E301981751F0209197012223C8
S113161031F0892F0E94870280939D0104C00E94AB
S1131620870280939D0180919701882339F0C0E857
S1131630D1E0898D0E9487028E8F02C18091E201E0
S11316400E94870280939E01FBC0809196018630A0
S113165008F07BC080919B019091E401891749F0C7
S113166020919701222329F00E94870280939C01F4
S113167018C03DEC839F212D11242695269526958F
S1131680939F912D1124969596959695291721F05F
S11316908AEA80939C0105C00E9487028F60809330
S11316A09C0180919A019091E301891749F020915E
S11316B09701222329F00E94870280939D0118C07C
S11316C03DEC839F212D1124269526952695939FE5
S11316D0912D1124969596959695291721F08AEACD
S11316E080939D0105C00E9487028FE080939D0135
S11316F080919701882339F0C0E8D1E0898D0E9458
S113170087028E8F9DC0809199013DEC839F212D8E
S113171011242695269526959091E201939F912D6B
S11317201124969596959695291749F0E0E8F1E0ED
S11317308AEA868F808D882309F48AC093C00E9428
S113174087028FE080939E017BC090919B018091E2
S1131750E401981719F1209197012223F9F02DEC57
S1131760929F912D1124969596959695829F212D61
S11317701124269526952695921751F0E0E8F1E07C
S11317808AEA848F928D8091E301981315C02DC04D
S11317900E9487028F6080939C0104C00E9487028C
S11317A080939C0190919A018091E3019817E9F04C
S11317B0209197012223C9F02DEC929F912D1124A1
S11317C0969596959695829F212D1124269526957A
S11317D02695921721F08AEA80939D010EC00E94FB
S11317E087028F6080939D0104C00E9487028093CA
S11317F09D01809197018823E9F08091E201209175
S113180099019DEC299F212D112426952695269535
S1131810899F912D1124969596959695291721F0D7
S11318208AEA80939E011EC00E9487028F60809383
S11318309E0106C08091E2010E94870280939E016E
S11318408091980181110EC08091970181110AC085
S1131850E0E8F1E086899091DF01981B978B808FF7
S11318608F5F868B909196018091DF01891708F034
S11318708FC1E0E8F1E085898F5F858B89C1E0E85D
S1131880F1E08091E2019091E301A091E401818F64
S1131890928FA38F158A7CC181E00E94E914809104
S11318A0A101833049F40E94A017882331F095B137
S11318B080E1892785B901C02C988091A1018330EA
S11318C009F083C09091E101963058F48091A5010C
S11318D0882339F0C0E8D1E08BA10E9487028C8F65
S11318E057C18091A3018C3081F18D3009F44DC032
S11318F08B3009F04DC19530E0F0C2EED1E08B8120
S11319000E94870200E811E0F801848F8C810E9414
S11319108702F801858F888180FF04C08AEA80935A
S11319209E0136C18091E7010E94870280939E0147
S11319302FC184E10E948702C0E8D1E08C8F80919E
S1131940E7010E9487028D8F23C1C2EED1E08B8113
S11319500E94870280939C01888180FF04C08AEAE8
S113196080939D0106C08091E6010E9487028093C6
S11319709D018091E101853008F40AC18091E7015D
S11319800E94870280939E0103C18091E20180FF3F
S113199004C08AEA80939C0106C08091E5010E94FC
S11319A0870280939C018091E6010E9487028093C4
S11319B09D018091E101853008F4EAC08091E7013E
S11319C00E94870280939E01E3C002EE11E0F801B9
S11319D083810E948702C0E8D1E08C8FF801848162
S11319E00E9487028D8FF80185810E9487028E8F65
S11319F0CFC081E00E94E9140E94A017882321F03F
S1131A0095B180E1892785B98091E101853020F481
S1131A108091A301833351F5C0E8D1E08BA10E94EA
S1131A2087028C8F8F8D8A3028F00E9487028093E2
S1131A309D010DC090919D01992331F00E94870270
S1131A40805680939D0103C08AEA80939D01809112
S1131A509E01882339F0C0E8D1E088A10E94870262
S1131A608E8F96C080EA80939E0192C09091A501CA
S1131A70992329F00E94870280939C0189C0809158
S1131A809F018A3028F00E94870280939C010BC03A
S1131A90882331F00E948702805680939C0103C002
S1131AA08AEA80939C018091A001882329F00E94F6
S1131AB0870280939D016CC080EA80939D0168C079
S1131AC00E94A017882309F440C0E0E8F1E0808573
S1131AD08F5F808782818F5F8A3018F480938201C0
S1131AE002C010928201809183018F5F8A3018F4C2
S1131AF08093830102C010928301809184018F5FDF
S1131B008A3018F48093840102C010928401809179
S1131B1085018F5F8A3018F48093850102C010928A
S1131B208501809186018F5F8A3018F48093860145
S1131B3002C010928601809187018F5F8A3018F469
S1131B408093870102C010928701C0E8D1E08A81A6
S1131B50880F982F990F990F890F9B81890F0E94E5
S1131B6087028C8F8C81880F982F990F990F890F7A
S1131B709D81890F0E9487028D8F8E81880F982FF7
S1131B80990F990F890F9F81890F0E9487028E8F69
S1131B90DF91CF911F910F9108951092A80186E1D2
S1131BA090E09093C3018093C2010895CF93DF9393
S1131BB0C0E8D1E080E788838AB18FEF8AB984B125
S1131BC0876184B987B1897F87B9198280E00E94CF
S1131BD0E91481E089A392E09093DA0195E090936F
S1131BE0DB012CE231E03093C1012093C0018AA3D0
S1131BF00E949E140E94CD0DDF91CF910895809193
S1131C00A801813099F020F0823009F460C0089571
S1131C106091C2017091C30144EC51E080E090E016
S1131C200E942D0781E08093A80108950E94160761
S1131C308111ABC0E0E8F1E08091C40182A78091FA
S1131C40C60185A78091C50183A78091C70187A795
S1131C508091C8019091C90191AB80AB8091CA0178
S1131C609091CB0193AB82AB8091CC019091CD014B
S1131C70A091CE0186AB97ABA0AF8091CF0190919C
S1131C80D001A091D10182AF93AFA4AF8091D201D2
S1131C909091D30197AF86AF8091D4018093DC01FA
S1131CA08091D5018093DD018091D6018093DE017E
S1131CB08091D7018093DF018091D8018093E00166
S1131CC08091D9018093E10182E080A708958091F9
S1131CD0A901882309F459C00E941607811155C02F
S1131CE0E0E8F1E011A682A58093C40185A5809364
S1131CF0C60183A58093C50187A58093C70180A9E8
S1131D0091A99093C9018093C80182A993A9909342
S1131D10CB018093CA0186A997A9A0AD8093CC0179
S1131D209093CD01A093CE0182AD93ADA4AD8093E9
S1131D30CF019093D001A093D10186AD97AD90933C
S1131D40D3018093D2018091DC018093D4018091EE
S1131D50DD018093D5018091DE018093D6018091CD
S1131D60DF018093D7018091E0018093D8018091B5
S1131D70E1018093D9016091C2017091C30144ECE7
S1131D8051E080E090E00E94210708958091A10134
S1131D90823009F062C08091AF01882309F476C0D3
S1131DA083E00E946302882339F083E00E943E02AC
S1131DB09093B5018093B4010E944915882309F4D6
S1131DC065C08091AF01813009F449C0E0E8F1E0D9
S1131DD0B2AD63AD94ADA6A957A980ADE2EEF1E032
S1131DE070814181228130853323A9F03091BD0176
S1131DF0332319F09C3009F0945F3091B9013323F7
S1131E0019F08C3009F0845F3091EB01332319F021
S1131E102C3009F0245F981778F4821710F52917ED
S1131E2010F5541710F5461710F5A71710F581E0B3
S1131E307B1760F180E008958917E8F42817E8F427
S1131E409217E8F44517E8F46417E8F47A17E8F40D
S1131E5081E0B717D8F080E0089580E0089580E02D
S1131E60089580E0089580E0089580E0089580E07A
S1131E70089580E0089580E0089580E0089580E06A
S1131E80089580E0089580E0089580E00895EF9239
S1131E90FF920F931F93CF93DF930E94C60EC82F18
S1131EA08091A101813029F008F469C4843098F04C
S1131EB066C48091A801823009F061C481E00E9467
S1131EC0E914E0E8F1E084E08093E10183E081A398
S1131ED083E383A354C40E94AA09319902C0329BAC
S1131EE004C088EC80937D0128C080917D0181111C
S1131EF024C08091A1018230A9F483E08093A101E0
S1131F00EDE7F1E088EC808384E681838091E10150
S1131F10863020F482E08093A3018EC181E0809317
S1131F20A3018AC1E0E8F1E082E081A388EC809318
S1131F307D0181A58F5F81A708C08091A1018230B6
S1131F4021F0833009F01BC477C18091A201815034
S1131F50823008F0CEC08091DD018823F1F18091B8
S1131F60E20181113AC0A2EEB1E012962C911297CF
S1131F70E0E8F1E08DEC289F912D1124969596953B
S1131F8096959283990F392F330F330F930F291B93
S1131F90238311969C91989F812D11248695869573
S1131FA086958483880F382F330F330F830F981B44
S1131FB095838091E101853010F026839783E0E8D2
S1131FC0F1E084E082A387A58230F1F1833009F443
S1131FD061C0813009F022C10AC08091AF01823012
S1131FE099F1833009F456C0813009F082C0E0E8E9
S1131FF0F1E022A933A984A995A928173907D8F4AF
S11320008091C0019091C101892B51F00E94A317C6
S113201041E090E0811101C040E0242F392F02C03B
S113202020E030E0E0ECF1E080819181821B930BB1
S1132030918380835EC08091BE019091BF01909393
S1132040C1018093C00155C0CC23D9F08091C00157
S11320509091C101892B51F00E94A31741E090E0B7
S1132060811101C040E0242F392F02C020E030E06C
S1132070E0ECF1E080819181821B930B918380835A
S113208038C08091BE019091BF019093C1018093AB
S1132090C0012FC0CC2369F1E0E8F1E022A933A903
S11320A084A995A928173907E0F48091C00190917B
S11320B0C101892B51F00E94A31731E020E0811166
S11320C001C030E0832F922F02C080E090E0E0EC6A
S11320D0F1E020813181A901481B590B51834083D0
S11320E008C08091BE019091BF019093C10180937B
S11320F0C0018091A201813039F0C0F1823039F100
S1132100843009F094C08AC08091C0019091C101CB
S1132110892B49F48AE090E09093C1018093C00137
S11321201092A20184C08091AA01882309F47FC07F
S11321308091AD01882309F47AC09091AC0191118A
S113214076C0E0E8F1E086A782E082A370C08091C7
S1132150AB01882309F46BC09091AE01911167C063
S1132160E0E8F1E084A781E082A361C0E0E8F1E067
S113217024A935A980A991A928173907D8F48091F1
S1132180C0019091C101892B51F00E94A31741E035
S113219090E0811101C040E0242F392F02C020E0DB
S11321A030E0E0ECF1E080819181821B930B91831C
S11321B0808308C08091BE019091BF019093C101BA
S11321C08093C001319B02C0329904C081E08093A6
S11321D0A2012DC08091AF01813051F48091C001E2
S11321E09091C101892B19F581E08093A2011FC050
S11321F0823031F4C1111BC081E08093A20117C069
S11322008330A9F48091C0019091C101892B79F4A4
S1132210C1110DC081E08093A20109C080918801A1
S11322208B3028F0E0E8F1E0108681E082A3809111
S1132230A2010E94E509A3C2319B06C0329B04C0DF
S11322408AE080937E01B1C186B1329B54C08091F3
S11322507E01811112C38091E101863050F4E0E8DF
S1132260F1E082E085A383A18F5F83A3813069F4C9
S113227008C0E0E8F1E083A18F5F83A3813029F4F3
S113228036C082E08093A30132C0843021F48BE015
S11322908093A3012CC08E3021F484E18093A301A8
S11322A026C0873121F48EE18093A30120C08F31B1
S11322B071F48091AF01823021F481E28093A30113
S11322C016C0811114C088E28093A30110C0863225
S11322D021F488E28093A3010AC08B3221F482E3C3
S11322E08093A30104C0843311F41092A3018EE1FE
S11322F080937E015AC1319B58C186B180917E0181
S1132300811153C1E2EEF1E0F0801181D281C381E9
S11323100481E580E091A3018E2F90E0FC013197C8
S1132320E333F10508F038C1E350FF4F0C94CB17A9
S1132330F3945BE35F1508F02FC1F12C2DC11F5FEF
S11323401C3308F429C110E027C1DF5F0E94261561
S11323508823B1F00E943E15882351F0DC3040F010
S113236080E00E94191580E00E943115D0E014C16C
S1132370DD3008F411C181E00E943115D1E00CC1B7
S1132380D83108F409C181E00E94191580E00E9447
S11323903115D0E001C1E39483E68E1508F0FCC04A
S11323A0E12CFAC00F5F0D3008F4F6C001E0F4C070
S11323B0CF5F023009F068C2CD3108F461C20E94D7
S11323C056158111DEC05CC2043009F4DCC006304D
S11323D009F4DBC0093009F4DAC00B3009F4D9C0C0
S11323E0C03208F4D9C0C1E0D7C08091AA018823C3
S11323F019F01092AA01D0C081E08093AA01CCC048
S1132400E0E8F1E085A58F5F85A7C6C0E0E8F1E0CC
S113241083A58F5F83A7C0C08091AF018F5F843095
S113242018F48093AF01B8C01092AF01B5C0E0E8D2
S1132430F1E084A995A993AB82ABAEC0E0E8F1E0EA
S113244084A995A991AB80ABA7C08091BB018F5F94
S11324508C3318F48093BB019FC01092BB019CC0C5
S1132460E0E8F1E084AD8F5F84AF9091EA019923B5
S113247079F09091EB01992329F08C3018F01092A7
S1132480BC018AC08D3008F487C01092BC0184C09E
S1132490883108F481C01092BC017EC08091B701DC
S11324A08F5F8C3318F48093B70176C01092B70114
S11324B073C0E0E8F1E080AD8F5F80AF9091EA01F6
S11324C0992379F09091EB01992329F08C3018F03D
S11324D01092B80161C08D3008F45EC01092B8014A
S11324E05BC0883108F458C01092B80155C080917F
S11324F0BE019091BF0101968536910528F4909311
S1132500BF018093BE0148C01092BF011092BE016A
S113251043C08091DD018F5F823018F48093DD0128
S11325203BC01092DD0138C08091DE018F5F8330A3
S113253018F48093DE0130C01092DE012DC080912A
S1132540DF018F5F893C18F48093DF0125C010926E
S1132550DF0122C08091E0018F5F823018F4809304
S1132560E0011AC01092E00117C08091E1018530AA
S113257020F084E08093E1010FC086E08093E101C4
S11325800BC0C1E009C0C1E007C0C1E005C0C1E0A3
S113259003C0C1E001C0C1E08EE180937E012C2F15
S11325A04D2F612F8F2D0E94E3164091A301842F9C
S11325B090E08433910508F0D2C0FC01E05DFE4F49
S11325C00C94CB17E0E8F1E0908189E2989F812D8B
S11325D0112482958F70878F24E6829F901911248D
S11325E090A3BFC0E0E8F1E0178E82A580A3C4C029
S11325F0E0E8F1E095A589E2989F812D1124829568
S11326008F70878F44E6849F9019112490A3B4C0DF
S1132610E0E8F1E093A589E2989F812D1124829549
S11326208F70878F54E6859F9019112490A3A4C0BE
S1132630E0E8F1E0178E87A580A39EC0C0E8D1E052
S1132640ECA9FDA99F013695279536952795ABE70B
S1132650B4E10E94D117969587958F8F54E6589FC1
S11326609001599F300D1124E21BF30BE8A377C0AE
S1132670E0E8F1E084AD878F83AD80A37DC0E0E81E
S1132680F1E084AD878F83AD80A376C0E0E8F1E00C
S113269080AD878F87A980A36FC0E0E8F1E080ADAB
S11326A0878F87A980A368C0E0E8F1E046AD57AD05
S11326B09A013695279536952795ABE7B4E10E94A4
S11326C0D11796958795878F64E6689F9001699FD7
S11326D0300D1124421B530B40A34EC0E0E8F1E03F
S11326E09091DD0189E2989F812D112482958F704C
S11326F0878F24E6829F9019112490A33DC0E0E8BF
S1132700F1E09091DE0189E2989F812D1124829558
S11327108F70878F44E6849F9019112490A32CC056
S1132720E0E8F1E09091DF0189E2989F812D112486
S113273082958F70878F54E6859F9019112490A3FA
S11327401BC0E0E8F1E0178E8091E00180A314C083
S1132750E0E8F1E08091E101878F10A20DC04430E0
S113276020F481E00E94E5090AC04A504A3020F46E
S113277082E00E94E50903C083E00E94E5090E940B
S11327809D1790917D01992311F081119AC0EDE775
S1132790F1E090839181992311F0811179C0909196
S11327A07F01992311F0811102C080E003C081E010
S11327B001C081E0981B90937F010E94A317909120
S11327C0AE01992311F081116BC09091AC01992352
S11327D011F0811102C020E003C021E001C021E01A
S11327E0E0E8F1E0921B94A795A1992351F0209180
S11327F0A101233041F421E0811101C020E0822FA6
S113280003C080E001C080E0C0E8D1E0981B9DA334
S11328100E949A179EA1992309F45BC0882309F4A6
S11328205FC091509EA32FA1222321F0911102C0D9
S113283081113EC090919701992311F0811102C03A
S113284020E003C021E001C021E0921BE0E8F1E0B8
S1132850978B208D222341F0911108C091E08111C2
S113286001C090E0892F03C080E001C080E0281BF4
S11328702093980138C086B198CE3199FCCF95CE7B
S1132880CE3108F088CEACCDCF3108F09DCDA8CDA7
S1132890EDE7F1E091509183928191118ACF85CF38
S11328A0E0E8F1E0915096A794A5911198CF93CFC9
S11328B0E0E8F1E0215027A39789992309F4C0CFD8
S11328C0C3CFEDE7F1E09150908391819111E0CF76
S11328D066CFE0E8F1E096A327A12111A9CFAACF02
S11328E09093A601A7CFDF91CF911F910F91FF90F5
S11328F0EF9008950E944C170E9427090E942E0908
S11329000E9400060E94EC140E9478010E94CD0DE2
S11329100E94D60D78940E9468170E9437070E947F
S1132920A7020E9474150E9488010E94FF0D0E9454
S1132930470F0E94B9140E949706EDCF82E080935E
S1132940B00081E08093B10088E78093B300239ABC
S11329508BE292E090930C0280930B0261E070E0B2
S113296080E00E94300264E670E083E00E9430025E
S1132970089580E00E946302882339F080E00E9479
S11329803E0290930A0280930902809108028823F0
S113299019F0813041F00895E0EBF0E080818F730D
S11329A080832B980895E8E0F2E0218132818381CD
S11329B094818217930738F4E0EBF0E080818F7301
S11329C080832B980895E0EBF0E08081806480831D
S11329D00895809308020895E2EEF1E086E196E01E
S11329E0978786878AE396E0918B808B88E296E0CE
S11329F0938B828B80E596E0958B848B84E396E0C1
S1132A00978B868B86E796E0918F808F87E396E09D
S1132A10938F828F81E996E0958F848F8CE796E07F
S1132A20978F868F86E896E091A380A381E08783C1
S1132A300895CF93E091F601F091F701309721F0DA
S1132A40C82F0995C093EA01CF910895E091F80148
S1132A50F091F901309711F0099508958091EA01F8
S1132A600895CF93E091FA01F091FB01309721F0A2
S1132A70C82F0995C093EB01CF910895E091FC0113
S1132A80F091FD01309711F0099508958091EB01C3
S1132A9008958091E901823039F481E09091EC014C
S1132AA0992319F080E0089580E008952091E701CA
S1132AB030E02053384FC90164E670E00E94B71734
S1132AC0892B31F4C90160E971E00E94B7170895B8
S1132AD023703078332334F4215031092C6F3F6F45
S1132AE02F5F3F4F822F08950F931F93CF938091B1
S1132AF0EE01882341F08091EF01882341F0109288
S1132B00EF01C1E005C00E94A317C82F01C0C0E0B7
S1132B108091E901813041F008F42AC1823081F0CA
S1132B20833009F4C3C022C1E2EEF1E081E0868380
S1132B30138682E0828783E0878381E090E01EC170
S1132B408091EC01813021F483E08093E90110C18C
S1132B508091060290910702892BC9F480910402A6
S1132B6090910502181619062CF49093070280938D
S1132B70060206C08AE090E0909307028093060262
S1132B80E2EEF1E082E0828783E08783F1C0E091A6
S1132B90F001F091F1010995882301F18091ED0193
S1132BA081111CC0E2EEF1E081E083870688F78999
S1132BB0E02D099591E0811101C090E09093EA0124
S1132BC0882361F08091FC019091FD01FC0109953D
S1132BD091E0811101C090E09093EB018091E201BA
S1132BE08C0F8C3318F48093E201C2C0E2EEF1E062
S1132BF0108281818F5F8C3318F48093E301B8C015
S1132C00E2EEF1E0118282818F5F828390859923C5
S1132C1099F09091EB01992329F08C3018F01282ED
S1132C201186BAC08D3008F4A3C0E2EEF1E081E071
S1132C3082839F5F91879CC0883108F499C0109269
S1132C40E401AAC01C3140F00E945615882321F0EB
S1132C5081E08093E501B1C01D3108F489C081E0B1
S1132C608093E501AAC01E3160F0043031F00730D2
S1132C7021F0802F8D7F893021F481E08093E5015C
S1132C8095C01F3108F474C081E08093E5018EC0C3
S1132C90E2EEF1E081E0848385818F5F843618F46D
S1132CA08093E70165C01092E70162C0E091F001F2
S1132CB0F091F101309709F452C00995882309F481
S1132CC04EC0E091FE01F091FF01309751F009955B
S1132CD0811107C0E0910002F0910102309709F0E0
S1132CE00995E091F201F091F3013097D1F08091D0
S1132CF0EC018130B1F482EE91E0099502EE11E02D
S1132D00D8015896ED91FC91599719968C91099593
S1132D10D8015496ED91FC91559718968C9109958C
S1132D201EC0E091F401F091F5013097C1F080915B
S1132D30EC018230A1F482EE91E0099502EE11E0FB
S1132D40D8015A96ED91FC915B970995F80181871A
S1132D500688F789E02D0995D80118968C93E2EE40
S1132D60F1E01286138682E0878302C01092E901A3
S1132D708091060290910702009711F0C11103C0DF
S1132D8020E030E002C021E030E0821B930B9093FE
S1132D9007028093060213C0E2EEF1E013811F5F85
S1132DA013830481023009F05ECF4CCF0F5F0D30E6
S1132DB008F06ECF0093E601DBCF0F5FFBCFCF911E
S1132DC01F910F910895EF920F93CF938C3310F4CA
S1132DD08093E2016C3310F46093E3018091EA0183
S1132DE0811105C0483118F44093E4010DC080916D
S1132DF0EB01882329F04C3038F44093E40104C0FB
S1132E004D3010F44093E40183E68E1510F0E09207
S1132E10E7010D3010F40093E6018091E601823061
S1132E2079F4C22F0E945615882329F0CD3118F465
S1132E30C093E50115C0CE3198F4C093E50110C0EC
S1132E402F3150F4843029F0873019F08D7F893088
S1132E5019F42093E50104C0203210F42093E50115
S1132E6081E08093EC01CF910F91EF9008951F9230
S1132E700F920FB60F9211248F93EF93FF93E2EE0C
S1132E80F1E085858F5F8587FF91EF918F910F909A
S1132E900FBE0F901F9018951092800089E08093C8
S1132EA0810010928200EFE6F0E0808182608083EE
S1132EB08FE39FE1909389008093880084E286BB2E
S1132EC00895EDE0F2E010821182128213820895D7
S1132ED00E94611780912D01882359F110922D01D0
S1132EE0EDE0F2E081E0808344814F5F44832581FB
S1132EF036812F5F3F4F36832583878190850196E6
S1132F00908787834A3018F0148241E04183243645
S1132F10310530F0EDE0F2E01682158221E02283E3
S1132F20883E934030F0EDE0F2E01086178281E0B5
S1132F308383089580910D02089580910E0208956F
S1132F4080910F0208958091100208951F920F92AC
S1132F500FB60F9211248F9380912D018F5F809370
S1132F602D018F910F900FBE0F901F90189597FB16
S1132F70072E16F4009407D077FD09D00E94E017BD
S1132F8007FC05D03EF4909581959F4F0895709568
S1132F9061957F4F0895EE0FFF1F0590F491E02D8A
S1132FA00994A29FB001B39FC001A39F700D811D1E
S1132FB01124911DB29F700D811D1124911D08953E
S1132FC0AA1BBB1B51E107C0AA1FBB1FA617B7074B
S1132FD010F0A61BB70B881F991F5A95A9F7809567
S1132FE09095BC01CD010895FB01DC0104C08D91D5
S1132FF00190801921F441505040C8F7881B990B67
S10930000895F894FFCFCF
S9030000FC
