:100000004FC067C052C165C0C4C163C062C061C097
:1000100060C05FC05EC05DC05CC05BC05AC0D6C17E
:10002000F0C157C056C055C054C0BFC03DC13CC14F
:100030003BC13AC139C138C137C136C135C134C1FC
:1000400033C132C131C130C12FC12EC1BEC0C0C009
:10005000CCC0D2C0D4C0D7C0D6C0D5C0D4C0D3C005
:10006000D2C0DEC0E0C0E3C0E2C0E1C0E0C0DFC09B
:10007000EAC0ECC0EFC0EEC0EDC0ECC0EBC014C1F4
:1000800013C112C1F3C0F4C0F3C0F2C0F1C0FCC090
:10009000FDC0FCC0FBC0FAC0F9C0F8C0F7C002C187
:1000A00011241FBECFEDCDBF10E0A0E6B0E0EEE022
:1000B000F5E002C005900D92A836B107D9F720E00F
:1000C000A8E6B0E001C01D92A539B207E1F703D15F
:1000D0001CC296CF10928700EBE7F0E012861082E8
:1000E00013868BB780688BBF85B7846085BF8B987C
:1000F000939AEBE6F0E081E890E09383828382E8D4
:1001000090E0958384838DE790E0918780878EE7E8
:1001100090E0938782878FE790E0958784870895A2
:1001200035D190917B00882329F02091870081E0D0
:10013000211101C080E0890F80937B00909187009E
:10014000911119C08823B9F0853640F0809186005E
:100150008F5F809386001092830009C09091830086
:100160009F5F90938300813110F081E001C080E0B7
:1001700010927B0001C080E0E091830090918400A8
:10018000E91709F491C0E0938400909168009827E2
:10019000909368004E2F50E04B33510508F084C017
:1001A0004B5E5F4F4F935F930895882319F0109231
:1001B0008500089580918600823008F475C081E042
:1001C0008093850010928600089580937C000895A6
:1001D00090917C00992309F467C0882309F464C0D6
:1001E00010928500109283000895882309F45CC062
:1001F00081E0809380000895882391F3089580938F
:10020000680010928100882309F44EC0F0E0E55B9D
:10021000FF4F908180918100890F80938100089524
:100220009111DECF08958093680010928200882398
:10023000D9F1F0E0ED5BFF4F908180918200890F52
:100240008093820008959111CBCF08958093680028
:1002500010927D00882341F1F0E0E45CFF4F908133
:1002600080917D00890F80937D00089510927E001B
:100270008823D1F0F0E0ED5CFF4F908180917E000B
:10028000890F80937E00089510927F00882361F08B
:10029000F0E0E25DFF4F908180917F00890F8093B5
:1002A0007F00089591119CCF08951F920F920FB671
:1002B0000F9211248F9380918700882319F0109258
:1002C000870003C081E0809387008F910F900FBE5D
:1002D0000F901F901895F89407D0FCDE88E76AD03D
:1002E000789417D01DDFFDCF1FBC89E08EBD12BCF6
:1002F00089B7806489BF8FE39FE19BBD8ABD88E297
:1003000088BF0895E8E8F0E010821182128213821B
:100310000895F8DF809187008823B9F11092870053
:1003200051E05093880040918C004F5F40938C00C7
:1003300020918D0030918E002F5F3F4F30938E00C3
:1003400020938D0080918F00909190000196909362
:10035000900080938F004A3020F010928C005093D0
:1003600089002436310538F010928E0010928D00ED
:1003700021E020938A00883E934038F0109290004C
:1003800010928F0081E080938B0008958091890006
:1003900008951F920F920FB60F9211248F938091A0
:1003A00087008F5F809387008F910F900FBE0F9013
:1003B0001F901895C798C5988093910087B38F7543
:1003C00087BB88EA8DB980EF8EB908951F920F928E
:1003D0000FB60F9211248F9310929300BD98B79B84
:1003E00002C0B59BFCCFB59902C088EE01C088EB76
:1003F0008DB980EF8EB98F910F900FBE0F901F9027
:1004000018951F920F920FB60F9211248F939F93FE
:10041000EF93FF9380919300823009F128F48823B1
:1004200059F0813041F168C0843009F43FC0E8F0F0
:10043000853009F441C060C08FB1882331F08FB19D
:10044000869590919100891313C0789B02C081E03A
:1004500003C01092690084E08093930049C0C5985E
:1004600083E080939300BD9845C08FB1882319F035
:1004700088EA8DB91FC0E0916A00E93058F4F0E0D5
:10048000EE0FFF1FE559FF4F0190F081E02D8081B5
:100490008FB901C01FB880916A008F5F80936A0096
:1004A00082E080939300BD9AC59A04C085E0809352
:1004B0009300BD9880E71FC084E0809393008091F3
:1004C0006900811107C08FB180936A0081E0809339
:1004D00069000EC0E0916A00E93050F4F0E0EE0FE0
:1004E000FF1FE559FF4F0190F081E02D8FB1808310
:1004F0001FB8BD9A8EE78EB9FF91EF919F918F91B2
:0E0500000F900FBE0F901F901895F894FFCF2C
:08050E00010204080A14285040
:00000001FF
