:10000000FAC009C108C107C106C105C104C103C1C5
:1000100002C101C100C1FFC0FEC0FDC0A4CFFBC032
:10002000FAC0F9C0F8C0F7C0F6C0F5C0F4C0F3C01C
:10003000F2C0F1C025C23BC24EC29BC2D9C241C36D
:1000400019C518C517C516C515C582C3D6C309C4B9
:1000500068C410C50FC50EC50DC50CC50BC59BC426
:10006000C5C408C507C506C505C504C503C502C581
:1000700001C500C5FFC4FEC4FDC4FCC4FBC4FAC472
:10008000F9C4F8C4F7C4F6C4F5C4F4C4F3C4F2C4A4
:10009000F1C4F0C4EFC4EEC4EDC4ECC4EBC4EAC4D4
:1000A000E9C4E8C4E7C4E6C4E5C4E4C4E3C4E2C404
:1000B000E1C4E0C4DFC4DEC4DDC4DCC4DBC4DAC434
:1000C000D9C4D8C4D7C4D6C4D5C4D4C4D3C4D2C464
:1000D000D1C4D0C4CFC4CEC4CDC4CCC4CBC4CAC494
:1000E000C9C4C8C4C7C4C6C4C5C4C4C4C3C4C2C4C4
:1000F000C1C4C0C4BFC4BEC4BDC4A2C4FAC51CC66A
:1001000032C638C64FC682C6BFC7BEC7BDC7BCC78A
:10011000C4C603C740C76BC7B7C7B6C7B5C7B4C760
:10012000B3C7B2C7B1C7B0C7AFC7AEC7ADC7ACC71B
:10013000ABC7AAC7A9C7A8C7A7C7A6C7A5C7A4C74B
:10014000A3C7A2C7A1C7A0C79FC79EC79DC79CC77B
:100150009BC79AC799C798C797C796C795C794C7AB
:1001600093C792C791C790C78FC78EC78DC78CC7DB
:100170008BC78AC789C788C787C786C785C784C70B
:1001800083C782C781C780C77FC77EC77DC77CC73B
:100190007BC77AC779C778C777C776C775C774C76B
:1001A00073C772C771C770C76FC76EC76DC76CC79B
:1001B0006BC76AC769C768C767C766C765C764C7CB
:1001C00063C762C75FC790CA98CA9FCA0ACB09CBE8
:1001D00008CB07CB06CB05CB04CB9FCAA7CAAECAB8
:1001E00000CBFFCAFECAFDCAFCCAFBCAC7CAD4CA32
:1001F000DCCAE4CAEDCA11241FBECFEFD4E0DEBFD3
:10020000CDBF22E0A0E0B1E001C01D92A330B20753
:10021000E1F746DCECCEF4CEECE7F0E080818083C1
:10022000EAE7F0E0808186688083E0E0F1E0128216
:1002300081E0808311820895FF920F931F93CF93E3
:10024000DF9380910001882309F48FC08091010120
:10025000813071F118F08230E1F162C080910201C9
:10026000482F50E097E0899FF0011124E050FF4FA4
:1002700020853185232B99F4FA01EE0FFF1FEE0F35
:10028000FF1FEE0FFF1FE41BF50BE050FF4F268111
:100290003781232B21F081E08093010141C08F5FE2
:1002A000863018F4809302013BC01092020138C0DE
:1002B000ACE7B0E08C91807FE0E0F1E09281890FC3
:1002C0008C93AAE7B0E08C9180648C9382E0818368
:1002D00027C080917A0086FD23C0209102013091D1
:1002E00078008091790097E0299FF0011124E05077
:1002F000FF4F90E0982F8827830F911D958384836B
:1003000081E0838386819781918780872F5F263064
:1003100018F42093020102C0109202011092010110
:1003200019DEE0E0F1E0CAE2D1E010E070E0FF2485
:10033000F39400E0DF01208531852115310549F076
:100340006F2D902F811102C0612F972F462F592FAB
:1003500002C0412F572F241B350B19963C932E9327
:1003600018973796EC17FD0729F7DF91CF911F916A
:100370000F91FF900895863050F497E0899FF00127
:100380001124E050FF4F7783668381E008958FEF5B
:100390000895282F30E097E0899FF0011124E05064
:1003A000FF4F8381882361F0F901EE0FFF1FEE0FED
:1003B000FF1FEE0FFF1FE21BF30BE050FF4F1382F6
:1003C000F901EE0FFF1FEE0FFF1FEE0FFF1FE21BE5
:1003D000F30BE050FF4F84819581089527E0829FC1
:1003E000C0011124FC01E050FF4F83810895282FA4
:1003F000207F30E0203A31058CF4282F2F70422FD7
:1004000050E04A30510564F482958F70982F990F0F
:10041000892F880F880F890F820F089580E0089533
:1004200080E008958436D8F42DEC829F212D11248C
:10043000269526952695220F922F990F990F290F11
:10044000982F921B292F90E0821B91096AE070E09F
:100450009BDD822F90E1699F800D1124089580E03B
:1004600008950F93CF93DF93E0913B018E2F90E09F
:100470008436910508F0FEC2FC01E65EFF4F099448
:1004800080913A01882341F080914101882309F449
:10049000F1C280933B01EEC280913C018111EEC21A
:1004A000EEE2F1E081E0838B858790E0EEC28091FF
:1004B0003F01811106C068E687E04FD680933F0177
:1004C000D9C202D6882309F4D5C2EEE2F1E085E074
:1004D000838B8587CFC280913F01F6D58823A1F019
:1004E00080913E01811115C0CEE2D1E01E8A0989BA
:1004F00023E041E065E471E084E491E00FD68D856E
:100500008A8B83E68D87B6C280913E01882309F4E9
:10051000B1C2CEE2D1E0188A8F898F7768DF8883F5
:10052000888D8F7764DF89838F81882341F0898D5F
:100530008F715DDF8A83898D80728F8706C0CEE2DE
:10054000D1E0898D8F7353DF8A83E0914201F0916E
:100550004301309749F080912E0190912F01A09195
:10056000300180839183A283EEE2F1E01586138A45
:1005700081C280913F01A8D58823A9F080913E01D6
:10058000811116C0CEE2D1E084E08E8B098927E08C
:1005900041E065E471E084E491E0C0D58D858A8B0B
:1005A00083E68D8767C280913E01882309F462C289
:1005B000CEE2D1E0188A8F898F7319DF8B83888D03
:1005C0008F7115DF8C83898D12DF8D83EC89FD8916
:1005D000309749F08091310190913201A09133011F
:1005E00080839183A283EEE2F1E01586138A42C2F2
:1005F00080913F0169D58823A1F080913E0181114E
:1006000015C0CEE2D1E01E8A098927E041E065E409
:1006100071E084E491E082D58D858A8B83E68D87B5
:1006200029C280913E01882309F424C2EEE2F1E060
:10063000108A848581110EC09789892F881F882789
:10064000881F8683918D81E096FF80E0878381E01B
:1006500080933A01CEE2D1E08F898F77C8DE88831C
:10066000888D8F77C4DE89838F81882341F0898DBF
:100670008F71BDDE8A83898D80728F8706C0CEE23E
:10068000D1E0898D8F73B3DE8A83CEE2D1E08B8D8A
:100690008F73ADDE8B838C8D8F71A9DE8C838D8DF6
:1006A000A6DE8D83AC89BD89109731F086E0FE010E
:1006B00001900D928A95E1F7EEE2F1E01586138A3A
:1006C000D9C180913F0100D58823A9F080913E01D6
:1006D000811116C0CEE2D1E087E08E8B098921E03E
:1006E00041E065E471E084E491E018D58D858A8B62
:1006F00083E68D87BFC180913E01882309F4BAC18A
:10070000EEE2F1E0108A8789982F991F9927991FA7
:100710009093390191E084FF90E09093380191E04B
:1007200081FF90E09093370191E080FF90E09093FB
:10073000360180913A01811106C0EEE2F1E084E0D9
:100740008587838B97C1EEE2F1E01586138A92C10B
:1007500080913F01B9D4882309F444C080913E01BF
:10076000811145C088E0E4E4F1E0DF011D928A9543
:10077000E9F7CEE2D1E0888155DE2E81B0E82B9FEB
:1007800090011124822B8F8B89814CDE8F77888F8B
:100790008F81882381F08A8145DE2F8130E4239F79
:1007A000A00111249F8560E2969F90011124242BC3
:1007B000822B898F0BC0CEE2D1E08A8133DE2F817C
:1007C00090E4299F90011124822B898FCEE2D1E001
:1007D000498964E084E491E08AD48D858A8B83E63C
:1007E0008D8748C180913E01882309F443C1EEE220
:1007F000F1E0108A1586138A3DC180913F0164D4CF
:10080000882321F180913E01811125C088E0E4E434
:10081000F1E0DF011D928A95E9F7CEE2D1E084E0B4
:100820008E8B8B81FFDD8F738F8B8C81FBDD8F71C6
:10083000888F8D81F7DD898F498964E084E491E0B8
:1008400056D48D858A8B83E68D8714C180913E01B5
:10085000882309F40FC1EEE2F1E0108A1586138AAD
:1008600009C180913F0130D4882309F44FC08091A1
:100870003E01811150C088E0E4E4F1E0DF011D9207
:100880008A95E9F7CEE2D1E08881CCDD2E81B0E80F
:100890002B9F90011124822B8F8B8981C3DD8F7751
:1008A000888F8F81882381F08A81BCDD2F8130E49D
:1008B000239FA00111249F8560E2969F900111243F
:1008C000242B822B898F0BC0CEE2D1E08A81AADD56
:1008D0002F8190E4299F90011124822B898FCEE2F1
:1008E000D1E08B819FDD8F738B8F8C819BDD8F712E
:1008F0008C8F8D8197DD8D8F498968E084E491E04C
:10090000F6D38D858A8B83E68D87B4C080913E01B6
:10091000882309F4AFC0EEE2F1E0108A1586138A4D
:10092000A9C080913F01D0D3882351F180913E012D
:1009300081112BC088E0E4E4F1E0DF011D928A958B
:10094000E9F7CEE2D1E087E08E8B9B85B0E89B9FF4
:10095000A00111242A8530E1239FC0011124942F86
:10096000982B8885982B8985880F892B8F8B4989AF
:1009700062E0CF01BCD38D858A8B83E68D877AC0F8
:1009800080913E01882309F475C0EEE2F1E0108AFF
:100990001586138A6FC080913F0196D38823D9F0C2
:1009A00080913E0181111CC088E0E4E4F1E0DF01A8
:1009B0001D928A95E9F7CEE2D1E0888133DD8F7709
:1009C0008F8B498962E084E491E091D38D858A8B95
:1009D00083E68D874FC080913E01882309F44AC089
:1009E000EEE2F1E0108A1586138A44C080913F013F
:1009F0006BD38823D9F080913E0181111BC088E020
:100A0000E4E4F1E0DF011D928A95E9F7CEE2D1E05E
:100A1000888108DD80688F8B498962E084E491E0F9
:100A200066D38D858A8B83E68D8724C080913E01B5
:100A3000882301F1EEE2F1E0108A1586138A1AC0CC
:100A400080913F012FD3853649F4CEE2D1E01D8657
:100A50001B8A898930D38AE08E8710C080913F013C
:100A600033D3882339F0EEE2F1E0828985878089EB
:100A70008F5F808B80913C01882331F071DA91E0A7
:100A8000811103C090E001C090E0EEE2F1E08685C4
:100A9000891B8687DF91CF910F91089588E0E4E468
:100AA000F1E0DF011D928A95E9F7EEE2F1E0108AAC
:100AB0001486818981117ED3EEE2F1E0118A1686D7
:100AC00081E0838B089580913B0181110AC0809160
:100AD0003A01813041F490914101992329F080E05D
:100AE000089580E0089580E008959C01909141016F
:100AF000911106C0EEE2F1E0358B248B84E0838B0C
:100B0000089580913501089580913D010895CF9316
:100B1000DF93FC019091410191110CC0CEE2D1E034
:100B2000FD8BEC8B86E0DE0101900D928A95E1F75A
:100B30008DE08B8BDF91CF910895909141019111C0
:100B400021C091E0811101C090E090933501909116
:100B500030019D3048F0882339F0EEE2F1E09C50FE
:100B6000928381E087870BC020913D01222339F0D9
:100B7000811105C0EEE2F1E0945F928317868BE06D
:100B800080934101089590913501911180933D0129
:100B9000089580914C01823009F448C028F48823DC
:100BA00051F08130E9F071C0833009F445C08430E0
:100BB00009F465C06AC0F9996AC080914F019091AB
:100BC0005001892B09F463C080915101882321F0E1
:100BD00081E080934C01089583E080934C01089557
:100BE00080914F01909150010097E9F0ECE4F1E021
:100BF000019794838383F894818192819C012F5F74
:100C00003F4F3283218392BD81BDA681B781CD0143
:100C10000196978386838C9180BDFA9AF99A78948D
:100C200082E08083089510924C010895F9992FC0B5
:100C300081E080934C01089580914F019091500183
:100C40000097D1F0ECE4F1E00197948383838181F4
:100C500092819C012F5F3F4F3283218392BD81BDE2
:100C6000F89AA681B781CD0101969783868380B5D6
:100C70008C9384E08083089510924C010895F99933
:100C800006C083E080934C01089510924C010895B2
:100C900080914F0190915001892B19F480914C0162
:100CA000089583E60895ECE4F1E0928381837483F0
:100CB00063835783468385818F5F85830895ECE442
:100CC000F1E0928381837483638357834683158223
:100CD0000895E0915601E43610F4E09357018E2F09
:100CE00090E08536910508F0CFC1FC01E258FF4F36
:100CF000099480915401882309F4C8C18091550159
:100D0000882309F4C3C1E4E5F1E081E0DF0190A1AB
:100D1000911103C091A1992351F098969C91992328
:100D200031F0E4E5F1E092E09283878308958F5FEC
:100D30003F96853059F708951092B90080E280936C
:100D4000B80084E08093BC0088B1806388B9E4E592
:100D5000F1E010A617AA10929A011092A90181E061
:100D600081831282089583E08093560184EA809300
:100D7000BC0008958091BC0088230CF087C180914D
:100D8000B900887F80935C01883011F0803121F4B4
:100D900084E0809356010895E4E5F1E094E69283BF
:100DA00083830895E0915B012E2F30E08FE0E89F70
:100DB000F0011124EC5AFE4F8189882399F085E0D7
:100DC000809356018FE0829FF001839FF00D1124E4
:100DD000EC5AFE4F8589880F8093BB0084E880938E
:100DE000BC00089585E0809356018FE0829FF0015A
:100DF000839FF00D1124EC5AFE4F8589880F8F5F79
:100E00008093BB0084E88093BC0008958091BC006F
:100E100088230CF03BC18091B900887F80935C01EE
:100E2000883111F0803499F4E0915B012FE0E29F6A
:100E3000F0011124EC5AFE4F8189882321F08AE0C9
:100E40008093560108958CE0809356010895803276
:100E5000C1F4A4E5B1E012961C9212971796EC919A
:100E600017978FE0E89FF0011124EC5AFE4F118A8A
:100E7000128A85E6808F17961C9284E98093BC00C5
:100E80000895883321F482E0809356010895E4E5C3
:100E9000F1E0838384E682830895E0915B018E2FE5
:100EA00090E02FE0E29FF0011124EC5AFE4F2189DF
:100EB0002223A9F02FE0289FF001299FF00D112493
:100EC000EC5AFE4F0384F485E02D80818093BB00B3
:100ED00084E88093BC008BE08093560108952FE056
:100EE000289FF001299FF00D1124EC5AFE4F228912
:100EF000222321F082E08093560108952FE0289F5D
:100F0000F001299FF00D1124EC5AFE4F108E84E958
:100F10008093BC001092560108958091BC008823F4
:100F20000CF0B4C08091B900887F80935C01883256
:100F3000B9F4A4E5B1E01796EC9117978FE0E89F1C
:100F4000F0011124EC5AFE4F838594850196948715
:100F5000838781898150818B8AE012968C930895D2
:100F600084E98093BC00A4E5B1E01796EC91179753
:100F70002FE0E29FF0011124EC5AFE4F18968C915D
:100F80001897808F14861386118A16861586128A02
:100F900012961C920895E0915B012E2F30E08FE0B5
:100FA000E89FF0011124EC5AFE4F8289823038F01C
:100FB00084EC8093BC008DE08093560108958130CD
:100FC00039F484E88093BC008DE080935601089545
:100FD000109256018FE0829FF001839FF00D112443
:100FE000EC5AFE4F108E84E98093BC0008958091E6
:100FF000BC0088230CF04AC08091B900982F987FDC
:1010000090935C01807F803529F5A4E5B1E01796C7
:10101000EC9117978FE08E9FF0011124EC5AFE4F50
:101020000584F685E02D9091BB0090831796EC9196
:1010300017978E9FF0011124EC5AFE4F85859685F7
:1010400001969687858782898150828B8CE01296E3
:101050008C93089584E98093BC00A4E5B1E01796D1
:10106000EC9117972FE0E29FF0011124EC5AFE4F0C
:1010700018968C911897808F16861586128A12966C
:101080001C92089500000895109256010895E4E519
:10109000F1E081E0818782831182089581E080936D
:1010A000540108952FE0829FC0011124FC01EC5AE5
:1010B000FE4F808D08952FE0829FC0011124FC0116
:1010C000EC5AFE4F108E08952FE0829FC00111242C
:1010D000FC01EC5AFE4F808D811107C081E0909198
:1010E0005501911103C080E0089580E008959C01AE
:1010F000215031402E3F334080F42FE0429FF001D9
:101100001124EC5AFE4F9487838716861586618BCF
:10111000128A81E0838B82E0808F08950F93FC0117
:10112000E150F140EE3FF340B0F4FB01E150F140FB
:10113000EE3FF34080F43FE0039FF0011124EC5AAE
:10114000FE4F9487838776876587418B228B81E06A
:10115000838B82E0808F0F9108959091550191309B
:1011600029F590917C01992381F090918B0199232D
:1011700041F090919A0191111BC093E023E030E07F
:1011800007C092E022E030E003C021E030E091E0CF
:101190004FE0429FF001439FF00D1124EC5AFE4FA7
:1011A00021E0218F878B658B892F089580E008953A
:1011B00080E008952FE0829FC0011124FC01EC5AC9
:1011C000FE4F118E089585B19091B601992311F0CB
:1011D000887F36C09091B801911118C0EDEAF1E016
:1011E00090A5928791A59387887F9FEF9BB9908167
:1011F0009F5F943018F49093AD0108C0EDEAF1E0E0
:1012000091E090839285992369F01AC09091B7017B
:10121000911116C09091AD01923049F0933061F078
:10122000913071F49091AE019BB9816009C09091A9
:10123000AF019BB9826004C09091B0019BB98460FA
:1012400085B908950F931F93CF93DF93813091F069
:1012500038F0823009F48BC0833009F401C12EC10B
:1012600080E078D42C98EDEAF1E08AEA81838283E9
:10127000838324C181E06ED48091B301833041F433
:101280006CD6882361F095B180E1892785B907C0C4
:101290008091D70180FF02C02C9A01C02C988091C8
:1012A000B301833009F052C08091B5018230E1F082
:1012B000833091F1813009F001C1C7EDD1E08A811D
:1012C000B1D80DEA11E0F80181838981ABD8F8012A
:1012D0008283888180FF04C0A5D88093B001EEC0CE
:1012E0008AEA8093B001EAC0C7EDD1E08A819AD83A
:1012F0008093AE01888180FF06C08091D80192D88A
:101300008093AF0103C08AEA8093AF018091D70137
:1013100089D88093B001D2C08091D70180FF06C0E8
:101320008091D9017FD88093AE0103C08AEA80936F
:10133000AE0107ED11E0F801818174D8CDEAD1E06A
:101340008A83F80180816ED88B83B8C007ED11E0E5
:10135000F801828167D8CDEAD1E08983F8018181E3
:1013600061D88A83F80180815DD88B83A7C081E032
:10137000F1D38091B301833041F4EFD5882331F06C
:1013800095B180E1892785B901C02C988091B3017E
:10139000833009F054C08091B5018C30F1F08D306C
:1013A000A1F18B3009F08AC0C7EDD1E08B813AD82A
:1013B0000DEA11E0F80181838C8134D8F801828331
:1013C000888180FF06C08091DC012CD88093B00119
:1013D00075C08AEA8093B00171C0C7EDD1E08B81FE
:1013E00021D88093AE01888180FF06C08091DB0107
:1013F00019D88093AF0103C08AEA8093AF0180912E
:10140000DC0110D88093B00159C08091D70180FFD2
:1014100006C08091DA0106D88093AE0103C08AEA43
:101420008093AE0107ED11E0F8018481FBD7CDEA8E
:10143000D1E08A83F8018581F5D78B833FC007ED22
:1014400011E0F8018381EED7CDEAD1E08983F8017C
:101450008481E8D78A83F8018581E4D78B832EC005
:1014600081E078D37AD5882321F095B180E189276E
:1014700085B9CDEAD1E08885D5D789838C818A303A
:1014800020F0D0D78093AF010CC09091AF01992389
:1014900029F0C8D780568093AF0103C08AEA8093B1
:1014A000AF018091B001882331F0CDEAD1E08D8188
:1014B000B9D78B8303C080EA8093B001DF91CF91CD
:1014C0001F910F910895EF92FF920F931F93CF9367
:1014D000DF938091B301813029F008F4DFC18530BA
:1014E00060F0DCC18091B901823009F0D7C181E0A0
:1014F00031D382E08093B301D1C165DE319902C05E
:10150000329B04C088EC8093AA0121C08091AA017B
:1015100081111DC08091B301823071F4EDEAF1E0D8
:1015200083E08683AAEAB1E088EC8C9384E6119686
:101530008C9381E0808792C0EDEAF1E082E08683BF
:1015400088EC8093AA0185858F5F858708C080918C
:10155000B301823021F0833009F0A0C17FC0EDEAF1
:10156000F1E01086118681E039D7882331F081E0DF
:1015700010D79093C5018093C4018091B40181304C
:1015800051F120F0823009F458C064C0EDEAF1E076
:10159000258936898789908D8217930770F0E0D46A
:1015A000EDEAF1E0218D328DA901481B5109CA01F4
:1015B000528F418F892B59F006C08CE291E09093B5
:1015C000C7018093C601319902C0329B43C081E0BC
:1015D0008093B4013FC08091BB01882369F0809162
:1015E000BE01882349F09091BD01911105C0EDEA3B
:1015F000F1E0828B82E08783EDEAF1E02389348990
:101600008789908D2817390770F4AAD4EDEAF1E0A4
:10161000218D328DA901481B5109CA01528F418F7A
:10162000892B41F017C08CE291E09093C701809321
:10163000C60110C01092B4010DC08091BC01882376
:1016400049F09091BF01911105C0EDEAF1E0808B66
:1016500081E087838091B401F5DD20C1319B06C014
:10166000329B04C08AE08093AB01C0C086B1329B3C
:101670001FC08091AB01811162C18091B5018F5F64
:10168000843021F48BE08093B5010EC08E3021F4BC
:1016900084E18093B50108C0893118F48093B501C5
:1016A00003C081E08093B5018EE18093AB019EC0C1
:1016B000319B9CC086B18091AB01811197C0E7ED51
:1016C000F1E0F0801181D281C3810481E580E09155
:1016D000B5018E2F90E0FC013197E831F10508F05B
:1016E00080C0ED51FF4F0994F3945BE35F1508F45C
:1016F000F12C8EE18093AB0174C01F5F1C3308F0A6
:1017000010E08EE18093AB016CC0DF5FD83108F050
:10171000D0E08EE18093AB0164C0E39483E68E1544
:1017200008F4E12C8EE18093AB015BC00F5F0D30BC
:1017300008F001E08EE18093AB0153C0CF5F02302F
:1017400009F004C1CD3108F4FDC028D281110BC0CD
:10175000F9C0802F8D7F843041F0893041F0C03254
:1017600048F0C1E007C0C1E005C0C1E003C0C1E06E
:1017700001C0C1E08EE18093AB0133C08091BB0119
:10178000882319F01092BB0103C081E08093BB0154
:101790008EE18093AB0125C0EDEAF1E081898F5F96
:1017A000818B8EE18093AB011CC0EDEAF1E087856F
:1017B0008F5F87878EE18093AB0113C0EDEAF1E084
:1017C0008789908D968B858B8EE18093AB0109C0C4
:1017D000EDEAF1E08789908D948B838B8EE1809385
:1017E000AB012C2F4D2F612F8F2D19D34091B501B7
:1017F0004631F9F028F4443131F0453151F041C01F
:10180000493138F13EC0EDEAF1E0148286858583E6
:1018100043C0EDEAF1E0918989E2989F812D11247E
:1018200082958F70848324E6829F9019112495837A
:1018300033C0EDEAF1E0978589E2989F812D11246C
:1018400082958F70848344E6849F90191124958338
:1018500023C0CDEAD1E0EF89F88D9F013695279519
:1018600036952795ABE7B4E1A2D3969587958C83FF
:1018700054E6589F9001599F300D1124E21BF30B41
:10188000ED83443018F481E0DDDC08C04A504A3072
:1018900018F482E0D7DC02C083E0D4DC5BD3909103
:1018A000AA01992311F0811165C0EAEAF1E0908361
:1018B0009181992311F081114DC09091AC01992330
:1018C00011F0811102C080E003C081E001C081E01D
:1018D000981B9093AC0144D39091BF01992311F0D0
:1018E000811140C09091BD01992311F0811102C076
:1018F00080E003C081E001C081E0CDEAD1E0981B27
:10190000988B25D39A85992309F442C08823D1F175
:101910002FEF290F2A879B85992341F0211108C0B9
:1019200021E0811101C020E0822F03C080E001C0CE
:1019300080E0981B9093B80133C086B157CF31999E
:10194000FCCF54CFCE3108F014CF09CFCF3108F0FF
:1019500000CF05CFEAEAF1E0915091839281911195
:10196000B6CFB1CFEDEAF1E09150928B9089911111
:10197000C3CFBECFEAEAF1E09150908391819111FB
:10198000E9CF9BCFEDEAF1E09287938580E0D1CF5C
:10199000EDEAF1E0928793859111C2CF80E0C9CF43
:1019A000DF91CF911F910F91FF90EF900895EDEA95
:1019B000F1E014868BE090E0948F838F0895CF93AD
:1019C000DF938AB18FEF8AB984B1876184B987B117
:1019D000897F87B9CDEAD1E0188280E0BBD081E071
:1019E0008E8383E088A785E089A76DD0E0DFDF9153
:1019F000CF910895CF93DF938091B901813081F029
:101A000018F0823039F149C0CDEAD1E06B8D7C8D80
:101A10004AEC51E080E090E052D981E08C873DC0F3
:101A200037D981113AC0EDEAF1E0858D8687878D3F
:101A3000818B868D878780A191A1948B838B82A1D6
:101A400093A1968B858B86A197A1928F818F82E03F
:101A5000848723C08091BA018823F9F019D98111B4
:101A60001CC0EDEAF1E015868685858F8189878F18
:101A70008785868F8389948991A380A38589968998
:101A800093A382A3818D928D97A386A3638D748D7A
:101A90004AEC51E080E090E006D9DF91CF910895C3
:101AA00011D2F5DAFBDAFAD758D0B6D380DF87DF68
:101AB00078941CD20ED9D5D48CD0BED39BDF03DD55
:101AC0001BD067D8F6CF82E08093B00081E080938E
:101AD000B10088E78093B300239A8BE292E0909361
:101AE000F9018093F80161E070E080E044D468E59A
:101AF00072E081E040C4089580E070D4882331F022
:101B000080E047D49093F7018093F6018091F5012E
:101B1000882319F0813041F00895E0EBF0E08081F6
:101B20008F7380832B980895E5EFF1E02181328156
:101B3000838194818217930738F4E0EBF0E0808191
:101B40008F7380832B980895E0EBF0E080818064B0
:101B5000808308958093F5010895E7EDF1E083E631
:101B600095E09587848787E895E09787868785E75E
:101B700095E0918B808B8DE995E0938B828B81E84A
:101B800095E0958B848B83EC95E0978B868B84E82E
:101B900095E0918F808F81E0878308952091DC010B
:101BA00030E02053384FC90164E670E0EDD1892B55
:101BB00021F4C90160E971E0E7C123703078332373
:101BC00034F4215031092C6F3F6F2F5F3F4F822F2C
:101BD00008951F93CF93DF93C3D1C82F8091DE0167
:101BE000813041F008F4F0C0823081F0833009F494
:101BF000BEC0E8C0E7EDF1E081E08683138682E0B5
:101C0000828783E0878381E090E0E4C08091E101F6
:101C1000813021F483E08093DE01D6C08091F3010E
:101C20009091F401892BC9F48091F1019091F20116
:101C3000181619062CF49093F4018093F30106C052
:101C40008AE090E09093F4018093F301E7EDF1E0F6
:101C500082E0828783E08783B7C0E091E301F0915F
:101C6000E4010995882301F18091E20181111CC0F2
:101C7000E7EDF1E081E083870488F589E02D09959F
:101C800091E0811101C090E09093DF01882361F021
:101C90008091EF019091F001FC01099591E0811193
:101CA00001C090E09093E0018091D7018C0F8C33BC
:101CB00018F48093D70188C0E7EDF1E010828181AC
:101CC0008F5F81838C3308F47FC082818F5F828332
:101CD0009085992399F09091E001992329F08C3017
:101CE00018F01282118684C08D3008F46DC0E7EDC3
:101CF000F1E081E082839F5F918766C0883108F4BC
:101D000063C01092D90174C0DC3138F047DF8823FA
:101D100021F081E08093DA017CC0DD3108F454C009
:101D200081E08093DA0175C0DE3160F0143031F06B
:101D3000173021F0812F8D7F893021F481E080934D
:101D4000DA0160C0DF3108F43FC081E08093DA013E
:101D500059C0E7EDF1E081E0848385818F5F8436AF
:101D600018F48093DC0130C01092DC012DC0E091AA
:101D7000E301F091E4013097F1F009958823D9F05F
:101D8000E091E501F091E601309741F08091E101A9
:101D9000813021F487ED91E009950DC0E091E701D4
:101DA000F091E801309739F08091E101823019F427
:101DB00087ED91E00995E7EDF1E01286138682E068
:101DC000878302C01092DE018091F3019091F401AB
:101DD000009711F0C11103C020E030E002C021E003
:101DE00030E0821B930B9093F4018093F30113C0B6
:101DF000E7EDF1E0D381DF5FD3831481123009F086
:101E000093CF82CF1F5F1D3008F0A3CF1093DB016B
:101E1000DBCF1F5FFBCFDF91CF911F910895EF9232
:101E20000F93CF938C3310F48093D7016C3310F45D
:101E30006093D8018091DF01811105C0483118F409
:101E40004093D9010DC08091E001882329F04C30E6
:101E500038F44093D90104C04D3010F44093D901B7
:101E600083E68E1510F0E092DC010D3010F4009343
:101E7000DB018091DB01823071F4C22F8FDE882379
:101E800029F0CD3118F4C093DA0115C0CE3198F4A1
:101E9000C093DA0110C02F3150F4843029F087301C
:101EA00019F08D7F893019F42093DA0104C02032B3
:101EB00010F42093DA0181E08093E101CF910F913A
:101EC000EF90089582E084BD83E085BDEEE6F0E00A
:101ED0008081826080838DE787BDAA9A0895EAEFAA
:101EE000F1E010821182128213820895F8DF80914E
:101EF0002D01882359F110922D01EAEFF1E081E0E4
:101F0000808344814F5F4483258136812F5F3F4F1B
:101F100036832583878190850196908787834A3011
:101F200018F0148241E041832436310530F0EAEFA5
:101F3000F1E01682158221E02283883E934030F042
:101F4000EAEFF1E01086178281E0838308958091A3
:101F5000FA0108958091FB0108958091FC01089594
:101F60008091FD0108951F920F920FB60F921124D8
:101F70008F9380912D018F5F80932D018F910F9012
:101F80000FBE0F901F90189597FB072E16F4009424
:101F900006D077FD08D017D007FC05D03EF4909509
:101FA00081959F4F0895709561957F4F0895A29FE9
:101FB000B001B39FC001A39F01D0B29F700D811DDE
:101FC0001124911D0895AA1BBB1B51E107C0AA1F34
:101FD000BB1FA617B70710F0A61BB70B881F991FCA
:101FE0005A95A9F780959095BC01CD010895F89474
:021FF000FFCF21
:00000001FF
