S01900004E69786965446F6E676C655F44434637372E737265631B
S11300004FC067C07FC165C0E3C163C062C061C047
S113001060C05FC05EC05DC05CC05BC05AC0F5C15B
S113002010C257C056C055C054C0CAC06AC169C1C5
S113003068C167C166C165C164C163C162C161C190
S113004060C15FC15EC15DC15CC15BC1C9C0CBC0E1
S1130050D7C0DDC0E3C0E6C0E5C0E4C0E3C0E2C091
S1130060E1C0F0C0F7C0FAC0F9C0F8C0F7C0F6C0EC
S113007005C10CC10FC10EC10DC10CC10BC141C1E1
S113008040C13FC116C117C116C115C114C122C157
S113009023C122C121C120C11FC11EC11DC12BC149
S11300A011241FBECFEDCDBF10E0A0E6B0E0E2E723
S11300B0F5E002C005900D92A836B107D9F720E00B
S11300C0A8E6B0E001C01D92A639B207E1F72ED12F
S11300D04EC296CF10928800ECE7F0E012861082B0
S11300E013868BB780688BBF85B7846085BF8B9878
S11300F0939AECE6F0E082E890E09383828383E8CD
S113010090E0958384838EE790E0918780878FE7E2
S113011090E09387828780E890E0958784870895AC
S113012054D190917C00882339F020916B0081E0B8
S1130130211103C080E001C080E0890F80937C001E
S113014090916B0091111DC08823E9F0853638F039
S1130150ECE7F0E083858F5F838710860FC08131E1
S113016038F0ECE7F0E080858F5F808791E006C08F
S1130170ECE7F0E080858F5F808790E010927C0050
S113018003C090E001C090E0ACE7B0E01896EC91B9
S1130190189719968C91E81709F4B3C0E093850079
S11301A0809168008927809368004E2F50E04B337C
S11301B0510508F0A6C04B5E5F4F4F935F930895BF
S11301C0992319F010928600089580918700823057
S11301D008F497C0ECE7F0E081E082871386089585
S11301E090937D00089580917D00882309F489C04F
S11301F0992309F486C0ECE7F0E01286108608958E
S1130200992309F47EC081E08093810008959111BF
S113021078C0ECE7F0E012861086089590936800A9
S113022010928200992309F46CC0ACE7B0E0F0E0CE
S1130230E55BFF4F908116968C911697890F169661
S11302408C930895882309F45CC0ECE7F0E01286EF
S1130250108608959093680010928300992309F4FE
S113026050C0ACE7B0E0F0E0ED5BFF4F9081179633
S11302708C911797890F17968C930895882309F406
S113028040C0ECE7F0E01286108608959093680071
S113029010927E009923A9F1ACE7B0E0F0E0E45CB1
S11302A0FF4F908112968C911297890F12968C931E
S11302B0089510927F00992321F1ACE7B0E0F0E0BB
S11302C0ED5CFF4F908113968C911397890F1396D1
S11302D08C93089510928000992399F0ACE7B0E0D4
S11302E0F0E0E25DFF4F908114968C911497890F92
S11302F014968C930895882321F0ECE7F0E012869D
S1130300108608951F920F920FB60F9211248F93A7
S1130310839B04C081E080936B0002C010926B0049
S11303208F910F900FBE0F901F901895F89407D0DF
S1130330D1DE88E75ED0789417D0F2DEFDCF1FBC03
S113034089E08EBD12BC89B7806489BF8FE39FE1C9
S11303509BBD8ABD88E288BF0895E9E8F0E0108279
S11303601182128213820895F8DF80918800882315
S113037059F110928800E9E8F0E081E0808344813B
S11303804F5F4483258136812F5F3F4F368325831A
S1130390878190850196908787834A3018F014826C
S11303A041E041832436310530F0E9E8F0E016827B
S11303B0158221E02283883E934030F0E9E8F0E0A2
S11303C01086178281E08383089580918A000895BE
S11303D01F920F920FB60F9211248F938091880071
S11303E08F5F809388008F910F900FBE0F901F90A6
S11303F01895C798C5988093920087B38F7587BB6B
S113040088EA8DB980EF8EB908951F920F920FB6C6
S11304100F9211248F9310929400BD98B79B02C041
S1130420B59BFCCFB59903C088EE8DB902C088EBAB
S11304308DB980EF8EB98F910F900FBE0F901F90E2
S113044018951F920F920FB60F9211248F939F93BA
S1130450EF93FF9380919400823061F128F4882314
S113046059F08130B9F17AC0843009F450C050F1A8
S1130470853009F453C072C08FB1882331F08FB135
S1130480869590919200891310C0789B04C081E0F6
S11304908093940005C01092690084E080939400D6
S11304A01FB8BD9A8EE78EB959C088EA8DB980E726
S11304B08EB954C0C59883E080939400BD988EE7AC
S11304C08EB94CC08FB1882329F088EA8DB980E7B2
S11304D08EB944C0E0916A00E93058F4F0E0EE0FC0
S11304E0FF1FE459FF4F0190F081E02D80818FB907
S11304F001C01FB880916A008F5F80936A0082E018
S113050080939400BD9AC59A80E78EB927C085E090
S113051080939400BD9880E78EB920C084E08093D6
S1130520940080916900811107C08FB180936A00A3
S113053081E0809369000EC0E0916A00E93050F4D4
S1130540F0E0EE0FFF1FE459FF4F0190F081E02D22
S11305508FB180831FB8BD9A8EE78EB9FF91EF915A
S11305609F918F910F900FBE0F901F901895F89444
S1050570FFCFB7
S10B0572010204080A142850D8
S9030000FC
