S01200004E69786965436C6F636B2E7372656329
S11300004EC05DC05CC05BC05AC059C058C057C028
S113001056C055C054C053C052C051C054CE4FC036
S11300204EC04DC04CC04BC04AC049C048C047C078
S113003046C045C05EC964C969C9D6C9D5C9D4C951
S1130040D3C9D2C9D1C9D0C967C96DC972C9CCC90C
S1130050CBC9CAC9C9C9C8C9C7C978C982C987C9E6
S1130060C3C9C2C9C1C9C0C9BFC9BEC9BDC985C97F
S11300708FC997C99FC9A4C9A9C9AEC9C7C9CBC9E2
S1130080CDC915CA14CA13CA12CA11CA10CA0FCAD2
S1130090CEC9D2C9D1C9DCC9F2C9E7C9FBC9112487
S11300A01FBECFEFD4E0DEBFCDBF22E0A0E0B1E0C1
S11300B001C01D92A331B207E1F7D3DB55CEA0CF27
S11300C0ECE7F0E080818083EAE7F0E080818668F5
S11300D08083E0E0F1E0128281E080831182089560
S11300E080910001882309F477C080910101813057
S11300F0F9F018F0823069F154C08091020197E060
S1130100899FF0011124E050FF4F20853185232B76
S113011031F426813781232B11F081E017C08F5FE2
S1130120863018F4809302013CC01092020139C059
S113013080917C00807F90910201890F80937C00E4
S113014080917A00806480937A0082E08093010138
S113015028C080917A0086FD24C02091020130914C
S113016078008091790097E0299FF0011124E050F4
S1130170FF4F90E0982F8827830F911D95838483E8
S113018081E08383868197819187808781E0820FD4
S1130190863018F48093020102C01092020110927A
S11301A0010188DDE0E0F1E020853185211531058C
S11301B041F061E090E0811101C060E0462F592FC9
S11301C002C040E050E0241B350B3187208737966E
S11301D091E0EA32F90741F70895863050F497E048
S11301E0899FF0011124E050FF4F7783668381E0FB
S11301F008958FEF0895282F30E097E0899FF0014C
S11302001124E050FF4F83818111138287E0829F84
S1130210F001839FF00D1124E050FF4F84819581FC
S1130220089527E0829FC0011124FC01E050FF4F94
S113023083810895982F907F903A60F4982F9F704F
S11302409A3040F482958F702AE0829F900D112499
S1130250892F089580E00895282F843680F46AE079
S113026043DD392F822F90E0831B91096AE070E00F
S11302705BDD832F90E1699F800D1124089580E058
S113028008950F9380913B018B3009F464C190F47D
S1130290823009F446C028F4882309F1813079F1C9
S11302A0B0C2843009F4B3C008F480C0853009F4C6
S11302B016C1A7C28E3009F41BC238F48C3009F47D
S11302C092C18D3009F4BCC19CC2863109F465C267
S11302D0833609F478C2853109F093C239C280911A
S11302E03A01882331F080914101882309F489C2BD
S11302F051C280913C01811188C281E00FC080917C
S11303003F01811106C068E687E074D580933F0100
S113031078C229D5882309F474C285E08093410109
S113032039C280913F011FD590913E01882341F04D
S1130330911106C01092440100913F0123E0DEC0F8
S1130340992309F45EC210923E01809145018F7792
S113035071DF80932E01809146018F776BDF80934C
S11303602F019091350180914701992351F08F71AC
S113037061DF8093300180914701807280933D0159
S113038004C08F7357DF80933001E0914201F091F4
S11303904301309709F433C180912E0190912F01CC
S11303A0A091300180839183A28329C180913F0170
S11303B0DAD490913E01882331F0911104C084E095
S11303C0809344012FC0992309F41BC210923E016B
S11303D0809145018F732EDF809331018091460116
S11303E08F7128DF809332018091470123DF80934E
S11303F03301E0914201F0914301309709F4FFC0C9
S11304008091310190913201A0913301CBCF809141
S11304103F01A9D490913E01882341F0911106C077
S11304201092440100913F0127E068C0992309F428
S1130430E8C110923E0190913A01809145019111D9
S113044010C0982F991F9927991F909334012091D8
S1130450470191E026FF90E09093350191E090935D
S11304603A018F77E7DE80932E01809146018F77E2
S1130470E1DE80932F01909135018091470199230A
S113048051F08F71D7DE80933001809147018072E3
S113049080933D0104C08F73CDDE80933001809141
S11304A049018F73C7DE8093310180914A018F71B6
S11304B0C1DE8093320180914B01BCDE8093330115
S11304C0A0914201B0914301109709F498C086E0CD
S11304D0EEE2F1E001900D928A95E1F790C08091EF
S11304E03F0141D490913E01882379F091110DC0D0
S11304F087E08093440100913F0121E041E065E4FD
S113050071E084E491E057D440C1992309F479C19E
S113051010923E0180914501982F991F9927991FA8
S11305209093390191E084FF90E09093380191E039
S113053081FF90E09093370191E080FF90E09093E9
S1130540360180913A0181115AC084E080933B01C5
S11305508093410156C180913F0105D490913E01A1
S1130560882309F447C0911145C088E0E4E4F1E030
S1130570DF011D928A95E9F780912E016DDE2091AD
S11305803401B0E82B9F90011124822B8093450104
S113059080912F0161DE8F77809346018091350130
S11305A0882389F08091300157DE2091350130E4B1
S11305B0239FA001112490913D0160E2969F900138
S11305C01124242B09C08091300146DE209135018D
S11305D090E4299F90011124822B8093470140913C
S11305E03F0164E0CFC080913F01BDD390913E01B3
S11305F081110AC0992309F404C110923E0110929A
S11306003B0110924101FDC09111F4CF88E0E4E474
S1130610F1E0DF011D928A95E9F784E080934401BB
S11306208091310119DE8F738093450180913201ED
S113063013DE8F7180934601809133010DDECDCF9F
S113064080913F0190D390913E01882399F29111BA
S1130650D1CF88E0E4E4F1E0DF011D928A95E9F767
S113066080912E01F9DD20913401B0E82B9F900197
S11306701124822B8093450180912F01EDDD8F772A
S11306808093460180913501882389F0809130015F
S1130690E3DD2091350130E4239FA00111249091E2
S11306A03D0160E2969F90011124242B09C08091A2
S11306B03001D2DD2091350190E4299F900111246D
S11306C0822B8093470180913101C6DD8F73809323
S11306D0490180913201C0DD8F7180934A0180917C
S11306E03301BADD80934B0140913F0168E04AC079
S11306F080913F0138D390913E01882309F47ACF49
S1130700911178CF88E0E4E4F1E0DF011D928A954D
S1130710E9F787E08093440180913901B0E88B9F29
S1130720A00111242091380130E1239FC00111243C
S1130730842B20913601982F922B80913701880FBA
S1130740892B8093450140913F0162E0CF011CC099
S113075080913F0108D390913E01882309F44ACF48
S1130760911148CF88E0E4E4F1E0DF011D928A951D
S1130770E9F780912E0170DD8F77809345014091D8
S11307803F0162E084E491E0FFD280913B018093D9
S1130790400183E680933B0134C080913F01E3D262
S11307A090913E01882309F425CF911123CF88E04D
S11307B0E4E4F1E0DF011D928A95E9F780912E01CE
S11307C04BDD8068DACF80913F01BBD2853659F486
S11307D010923B011092410180913F01BBD28AE00B
S11307E080933C010EC080913F01BDD2882349F023
S11307F08091400180933B0180913E018F5F809303
S11308003E0180913C01882321F05ADA91E0811164
S113081001C090E080913C01891B80933C010F91C1
S1130820089588E0E4E4F1E0DF011D928A95E9F798
S113083010923E0110923A0180913F01811105D33B
S113084010923F0110923C0181E080934101089590
S113085080913B01811107C080913A01813019F4E4
S113086090914101911180E008952091410121115D
S113087007C0909343018093420184E08093410137
S1130880089580913501089580913D010895FC01FA
S11308908091410181110EC0F0934301E093420124
S11308A096E0AEE2B1E001900D929A95E1F78DE009
S11308B080934101089590914101911121C091E0EB
S11308C0811101C090E090933501909130019D30E9
S11308D048F0882339F09C509093300181E0809354
S11308E03D010BC020913D01222339F0811105C047
S11308F0945F9093300110923D018BE0809341010D
S1130900089590913501911180933D01089580914E
S11309104C01823009F449C028F4882351F0813015
S1130920C9F072C0833009F443C0843009F469C04B
S11309306BC0F9996BC080914F0190915001892B44
S113094009F464C080915101882311F081E056C0FC
S113095083E054C080914F0190915001009709F4B5
S113096053C001979093500180934F01F894809164
S11309704D0190914E019C012F5F3F4F30934E01EA
S113098020934D0192BD81BDE0915201F09153013C
S1130990CF0101969093530180935201808180BDD1
S11309A0FA9AF99A789482E029C0F99BCFCF0895F6
S11309B080914F0190915001009731F101979093EC
S11309C0500180934F0180914D0190914E019C0103
S11309D02F5F3F4F30934E0120934D0192BD81BD57
S11309E0F89AE0915201F0915301CF01019690934E
S11309F053018093520180B5808384E080934C013D
S1130A000895F99BA5CF089510924C010895809103
S1130A104F0190915001892B19F480914C01089554
S1130A2083E60895ECE4F1E0928381837483638325
S1130A305783468385818F5F85830895ECE4F1E0D5
S1130A4092838183748363835783468315820895D5
S1130A5080915601843610F480935701853009F44F
S1130A6090C028F5823009F456C0D8F4882391F157
S1130A70813009F058C11092B90090E29093B80007
S1130A8094E09093BC0098B1906398B910927C0163
S1130A9010928B0110929A011092A9018093550132
S1130AA042C18330E9F1843009F44FC03CC18C3039
S1130AB009F4E5C038F48A3009F498C08B3009F49D
S1130AC0B3C031C18D3009F4F3C0843609F02BC1B1
S1130AD00000089580915401882309F426C180916F
S1130AE05501882309F421C1E4E5F1E081E090A1F6
S1130AF0911103C091A1992349F090A5992331F054
S1130B0092E09093560180935B0108958F5F3F9626
S1130B10853069F7089583E08093560184EA28C0FC
S1130B208091BC0087FF01C18091B900887F8093C8
S1130B305C01883011F0803111F484E0E4C094E663
S1130B4090935601809357010895E0915B018FE0E3
S1130B50E89FF0011124EC5AFE4F9189858999236D
S1130B6051F095E090935601880F8093BB0084E880
S1130B708093BC00089595E090935601880F8F5F91
S1130B80F4CF8091BC0087FFD0C08091B900887FEA
S1130B9080935C01883111F0803469F4E0915B0149
S1130BA09FE0E99FF0011124EC5AFE4F81898823CC
S1130BB009F4A8C054C0803289F410925601E0911F
S1130BC05B018FE0E89FF0011124EC5AFE4F118A7B
S1130BD0128A85E6808F10925B0168C0883311F415
S1130BE082E091C08093570184E68DC0E0915B015F
S1130BF09FE0E99FF0011124EC5AFE4F818988237C
S1130C0059F00384F485E02D80818093BB0084E84F
S1130C108093BC008BE077C082898111E1CF108E74
S1130C2084E98093BC007FC08091BC0087FF7DC0B5
S1130C308091B900887F80935C01E0915B018832E8
S1130C4081F48FE0E89FF0011124EC5AFE4F838574
S1130C50948501969487838781898150818B8AE06A
S1130C6052C094E99093BC009FE0E99FF0011124E5
S1130C70EC5AFE4F808F14861386118A51C0E0917E
S1130C805B018FE0E89FF0011124EC5AFE4F82894A
S1130C90823010F084EC03C0813029F484E880931E
S1130CA0BC008DE030C010925601108E84E960CFF4
S1130CB08091BC0087FF39C08091B900982F987F3C
S1130CC090935C01807FE0915B018035F9F48FE0C3
S1130CD08E9FF0011124EC5AFE4F0584F685E02D19
S1130CE09091BB009083E0915B018E9FF0011124F1
S1130CF0EC5AFE4F8585968501969687858782896D
S1130D008150828B8CE080935601089584E980930E
S1130D10BC008FE0E89FF0011124EC5AFE4F908F45
S1130D2016861586128A109256010895E4E5F1E0BC
S1130D3081E0818782831182089581E08093540148
S1130D4008952FE0829FC0011124FC01EC5AFE4F4C
S1130D50808D08952FE0829FC0011124FC01EC5A7C
S1130D60FE4F108E08952FE0829FC0011124FC01D4
S1130D70EC5AFE4F808D811105C081E090915501A0
S1130D80911101C080E008959C01215031402E3F13
S1130D90334080F42FE0429FF0011124EC5AFE4FBF
S1130DA09487838716861586618B128A81E0838BEC
S1130DB082E0808F08950F93FC01E150F140EE3FF3
S1130DC0F340B0F4FB01E150F140EE3FF34080F416
S1130DD03FE0039FF0011124EC5AFE4F9487838770
S1130DE076876587418B228B81E0838B82E0808FBD
S1130DF00F91089590915501913029F590917C01BE
S1130E00992361F090918B01992361F090919A015B
S1130E10911119C093E023E030E007C091E021E094
S1130E2030E003C092E022E030E04FE0429FF00166
S1130E30439FF00D1124EC5AFE4F21E0218F878B44
S1130E40658B892F089580E008952FE0829FC0016B
S1130E501124FC01EC5AFE4F118E089585B1909136
S1130E60B601992311F0887F31C09091B801911196
S1130E7013C09091E5019093B7019091E60190938E
S1130E80B801887F9FEF9BB99091AD019F5F94302B
S1130E9008F091E09093AD019091B701911116C0C3
S1130EA09091AD01923049F0933061F0913071F43A
S1130EB09091AE019BB9816009C09091AF019BB93B
S1130EC0826004C09091B0019BB9846085B9089593
S1130ED0813089F038F0823009F441C0833009F45C
S1130EE0A8C0089580E011D52C988AEA8093AE01B9
S1130EF08093AF01C5C081E008D58091B3018330F0
S1130F0041F4DBD6882361F095B180E1892785B966
S1130F1007C08091E70180FF02C02C9A01C02C9881
S1130F208091B301833009F060C08091B5018230B3
S1130F3009F441C0833009F449C0813009F0A2C0EA
S1130F408091E90189D98093AE018091E80184D927
S1130F508093AF018091E70180FF2BC08EC081E0B8
S1130F60D4D48091B301833009F043C0A6D688233A
S1130F7021F095B180E1892785B98091B30183304F
S1130F8009F053C08091B5018C30A9F18D30F1F195
S1130F908B3009F077C08091EA015ED98093AE016D
S1130FA08091EB0159D98093AF018091E70180FDD5
S1130FB039C08AEA65C08091E9014ED98093AE01B7
S1130FC08091E70180FD09C08AEA0AC08091E701A7
S1130FD080FD0BC08AEA8093AE018091E8013CD980
S1130FE08093AF018091E70148C08091E90134D931
S1130FF0F2CF2C98C2CF8091EA012ED98093AE0112
S11310008091E70180FD09C08AEA0AC08091E70166
S113101080FD0BC08AEA8093AE018091EB011CD95C
S11310208093AF018091EC0128C08091EA0114D92A
S1131030F2CF81E06AD441D6882321F095B180E1D2
S1131040892785B98091B50107D98093AE01809134
S1131050B1018A3010F000D908C09091AF019923F2
S113106019F0FAD8805601C08AEA8093AF018091C2
S1131070B001882321F08091B201EED801C080EA4A
S11310808093B0010895EF92FF920F931F93CF9333
S1131090DF938091B301813029F008F499C285303F
S11310A058F096C2C091B901C23009F091C281E0F2
S11310B02CD4C093B3018CC2D1DE81E0B2D8882392
S11310C031F081E098D89093C6018093C50143E044
S11310D050E067EC71E08AEC91E039D68C0143E092
S11310E050E067EE71E08AEC91E031D6EC0143E028
S11310F050E067EE71E087EC91E029D610161106F6
S11311001CF4D7FD0AC003C01C161D0634F0C1E050
S1131110181619061CF0C0E001C0C1E08091C0019E
S1131120823031F0833089F0813009F044C00FC03F
S113113043E050E06AEC71E087EE91E008D6892B39
S1131140D1F584E08093B30136C0CC23A1F1409162
S1131150C3015091C4012091C5013091C601809111
S1131160CF019091D0014217530778F02091CD011F
S11311703091CE01821B930B9093D0018093CF01C9
S11311808091CF019091D001DACF892B49F098D585
S113119031E020E0811101C030E0832F922F02C0A2
S11311A080E090E02091CF013091D001A901481B4B
S11311B0590BCA01E1CF319902C0329B03C088ECBC
S11311C08093AA018091AA0181111BC08091B3016F
S11311D0823069F083E08093B30188EC8093AA01A4
S11311E084E68093AB0181E08093B5010AC08093CB
S11311F0B30188EC8093AA018091BA018F5F809338
S1131200BA018091B301833081F1843009F459C16A
S1131210823009F0DDC11092B5011092B6019091AF
S1131220B401913019F0923081F01CC09091BB014F
S11312309923C1F09091BE019923A1F02091BD01A1
S1131240211110C09093BF010BC08091BC01882371
S113125049F09091BF01911105C08093BD0181E0D7
S11312608093B4018091B40129C2319B04C0329BA4
S113127002C08AE01DC086B1E091B501329B1BC05B
S11312808091AB01811117C081E08E0F843011F47D
S11312908BE00BC08E3011F484E107C0873111F468
S11312A08EE103C0853208F081E08093B5018EE1C0
S11312B08093AB019EC0319B9CC086B18091AB01F1
S11312C0811197C0F090E7011091E801D091E901F4
S11312D0C091EA010091EB01E090EC018E2F90E0C7
S11312E0FC013197E432F10508F07EC0E65EFF4F61
S11312F00994F3945BE35F1508F073C0F12C71C09B
S11313001F5F1C3308F46DC010E06BC0DF5FD83181
S113131008F467C0D0E065C0E39483E68E1508F056
S113132060C0E12C5EC00F5F0D3008F45AC001E0CC
S113133058C0CF5F023009F0B1C1CD3108F451C0BB
S113134008D3882309F4A6C1C1E04BC08091BB0136
S1131350882319F01092BB0144C081E08093BB0143
S113136040C08091BE018F5F8093BE013AC08091DE
S1131370BC018F5F8093BC0134C08091C0018F5F3A
S1131380843018F48093C0012CC01092C00129C08D
S11313908091C5019091C6019093C4018093C301CB
S11313A020C08091C5019091C6019093C2018093A1
S11313B0C10117C08091CB018F5F8093CB0111C015
S11313C08091CC018F5F8093CC010BC08091C801C8
S11313D08F5F8093C80105C08091C9018F5F80939E
S11313E0C9018EE18093AB012C2F4D2F612F8F2DDE
S11313F0CCD32091B501822F90E0FC017497E131A8
S1131400F10508F054C0E25CFF4F09941092B10159
S11314108091BB0127C08091BE0102C08091BC01B4
S113142064E662D48093B1019093B20146C11092F4
S1131430B1018091C00116C08091C5019091C6018F
S113144064E670E05DD46093B1018093B20133C06F
S11314508091CC018093B1018091E70180FF0DC0A0
S11314608091CB018093B20128C18091C9018093FE
S1131470B1018091E70180FD15C08AEAF3CF809124
S1131480E70180FF03C08091CC0101C08AEA809308
S1131490B101E6CF8091E70180FF07C08091C901C7
S11314A08093B1018091C801DDCF8AEAF9CF24305D
S11314B010F481E003C12A502A3008F0FEC082E013
S11314C0FDC080E005DD8091CF019091D0010097AF
S11314D021F0319902C0329B03C021E02093B40172
S11314E0D091C001D13041F028F0D23079F1D3301D
S11314F0C9F16EC082E06AC04091C3015091C40139
S11315002091C5013091C60124173507B0F4892B09
S113151049F0D6D331E020E0811101C030E0832FBF
S1131520922F02C080E090E02091CF013091D00151
S1131530A901481B590BCA0104C08091CD019091A7
S1131540CE019093D0018093CF0142C043E050E09C
S113155067EC71E087EE91E0FAD3892BC9F5D0935B
S1131560B30136C0C11134C04091C1015091C201D0
S11315702091C5013091C60124173507B0F4892B99
S113158049F09ED331E020E0811101C030E0832F87
S1131590922F02C080E090E02091CF013091D001E1
S11315A0A901481B590BCA0106C02091CD013091F5
S11315B0CE01821B930B9093D0018093CF01809135
S11315C0CF019091D001892B19F484E08093B30169
S11315D071D32091AA01222319F091E0811101C055
S11315E090E0291B2093AA012091AB01222319F03A
S11315F091E0811101C090E0291B2093AB0120915F
S1131600AC01222331F091E0811101C090E0892FD7
S113161001C080E0281B2093AC0152D32091BF016C
S1131620222319F091E0811101C090E0291B20933D
S1131630BF012091BD01222331F091E0811101C04D
S113164090E0892F01C080E0281B2093BD012FD397
S11316509091B701992319F021E0811101C020E094
S1131660921B9093B7012091B801222341F091116C
S113167006C091E0811101C090E0892F01C080E093
S1131680281B2093B801DF91CF911F910F91FF90F8
S1131690EF900895CE3108F057CEA3CECF3108F4A1
S11316A0A0CE802F8D7F843009F44ECE893009F48A
S11316B04BCECF3109F048CE94CE83E009DC88CFFD
S11316C0EDEAF1E0148682E190E095A384A3089505
S11316D0CF93DF938AB18FEF8AB984B1876184B9DC
S11316E087B1897F87B9CDEAD1E0188280E00DD136
S11316F081E08E8383E088AF85E089AFC5D0DF9138
S1131700CF91DECF8091B901813081F020F0823019
S113171009F453C008956091D1017091D20143ED51
S113172051E080E090E08AD981E044C070D9811111
S113173097C08091D3018093BB018091D5018093A0
S1131740BE018091D4018093BC018091D601809325
S1131750C0018091D7019091D8019093C2018093E8
S1131760C1018091D9019091DA019093C4018093D1
S1131770C3018091DD019091DE01A091DF0180938E
S1131780C7019093C801A093C9018091E001909191
S1131790E101A091E2018093CA019093CB01A0934F
S11317A0CC018091E3019091E4019093CE01809368
S11317B0CD0182E08093B90108958091BA01882314
S11317C009F44EC024D981114BC01092BA01809102
S11317D0BB018093D3018091BE018093D501809198
S11317E0BC018093D4018091C0018093D601809183
S11317F0C1019091C2019093D8018093D701809147
S1131800C3019091C4019093DA018093D90180912E
S1131810C7019091C801A091C9018093DD01909303
S1131820DE01A093DF018091CA019091CB01A091C8
S1131830CC018093E0019093E101A093E2018091B7
S1131840CD019091CE019093E4018093E3016091E6
S1131850D1017091D20143ED51E080E090E0E2C803
S11318600895D4D163DA69DADCD752D029D428DFD9
S11318702FDF7894DFD1ECD804D57DD031D442DF8A
S113188002DC1AD044D8F6CF82E08093B00081E025
S11318908093B10088E78093B300239A8BE292E0AF
S11318A0909309028093080261E070E080E095D48F
S11318B068E572E081E091C480E0B3D4882331F01C
S11318C080E099D4909307028093060280910502E8
S11318D0882371F0813009F0089520910602309137
S11318E0070280910802909109028217930738F445
S11318F08091B0008F738093B0002B9808958091ED
S1131900B00080648093B000089580930502089528
S1131910E7EEF1E088E294E09587848787E494E039
S11319209787868785E394E0918B808B8BE594E0A1
S1131930938B828B81E494E0958B848B81E894E093
S1131940978B868B84E494E0918F808F81E08783EA
S113195008952091EC0130E02053384FC90164E62A
S113196070E0E2D1892B21F4C90160E971E0DCC1A6
S1131970822F837008951F93CF93DF93A1D1182FE3
S11319808091EE01813041F008F4B0C0823079F0EA
S1131990833009F481C0A8C08093ED0181E090E018
S11319A090930402809303021092F20117C0809175
S11319B0F1018130B1F08091030290910402892BEE
S11319C091F480910102909102021816190614F004
S11319D08AE090E0909304028093030282E0809373
S11319E0F10183E07EC0E091F301F091F4010995E7
S11319F08823F9F08091F20181111BC081E080936A
S1131A00F201E091FB01F091FC01099591E0811153
S1131A1001C090E09093EF01882359F0E091FF0119
S1131A20F0910002099591E0811101C090E090933A
S1131A30F0018091E701810F8C3318F48093E70162
S1131A4055C01092E7018091E8018F5F8093E8010F
S1131A508C3308F44BC08091E9018F5F8093E901D6
S1131A609091EF01992399F09091F001992339F025
S1131A708C30E0F11092E9011092F00151C08D30E8
S1131A80A8F181E08093E9018093F0012FC08831AF
S1131A9068F11092E90144C0E091F301F091F4017E
S1131AA03097D1F009958823B9F0E091F501F091D0
S1131AB0F601309721F08091F101813051F0E091ED
S1131AC0F701F091F801309739F08091F1018230FB
S1131AD019F487EE91E009951092F1011092F20148
S1131AE082E08093EE0102C01092EE018091030225
S1131AF090910402009741F051E040E0111101C0BF
S1131B0050E0252F342F02C020E030E0821B930BDD
S1131B109093040280930302DF91CF911F91089563
S1131B20D091EA01DF5FD093EA01C091EB01C230AA
S1131B3079F4DC31D8F20DDF882339F081E0809329
S1131B40EA01CF5FCD3088F41DC0DC31B9F7CECFC8
S1131B50DE3160F2C43091F3C73081F38C2F8D7F76
S1131B60893061F3DE3151F7C1CF8093EB0180916D
S1131B70EC018F5F843618F48093EC01B7CF109298
S1131B80EC01B4CFC093EB01B1CFEF920F93CF939D
S1131B90C22F8C3310F48093E7016C3310F46093FC
S1131BA0E8018091EF01811105C0483118F4409398
S1131BB0E90109C08091F001882319F04C30B8F391
S1131BC002C04D30A0F383E68E1510F0E092EC01D4
S1131BD00D3010F40093EB018091EB01823059F445
S1131BE0B8DE882329F0CD3118F4C093EA0107C088
S1131BF0CE31D8F304C0CF31C0F3CF31B1F381E09B
S1131C008093F101CF910F91EF90089582E084BD0C
S1131C1083E085BDEEE6F0E08081826080838DE71D
S1131C2087BDAA9A0895EAE0F2E010821182128236
S1131C3013820895F8DF80912D018823B9F1109261
S1131C402D0151E050930A0240910E024F5F4093E0
S1131C500E0220910F02309110022F5F3F4F3093FC
S1131C60100220930F0280911102909112020196AA
S1131C7090931202809311024A3020F010920E02C7
S1131C8050930B022436310538F010921002109252
S1131C900F0221E020930C02883E934038F010920A
S1131CA012021092110281E080930D020895809136
S1131CB00A02089580910B02089580910C02089500
S1131CC080910D0208951F920F920FB60F92112466
S1131CD08F9380912D018F5F80932D018F910F90B1
S1131CE00FBE0F901F901895991B79E004C0991F9F
S1131CF0961708F0961B881F7A95C9F78095089562
S1131D00AA1BBB1B51E107C0AA1FBB1FA617B7071D
S1131D1010F0A61BB70B881F991F5A95A9F7809539
S1131D209095BC01CD01089597FB072E16F40094FD
S1131D3006D077FD08D0E4DF07FC05D03EF490958B
S1131D4081959F4F0895709561957F4F0895FB018C
S1131D50DC0104C08D910190801921F44150504060
S10F1D60C8F7881B990B0895F894FFCF76
S9030000FC
